:100000000C94BF0A0C94E70A0C94E70A0C94C10EF6
:100010000C94E70A0C942B0E0C94E70A0C94E70A54
:100020000C94E70A0C94E90A0C94E70A0C94A614C1
:100030000C94E70A0C94E70A0C9481140C94E70AD8
:100040000C943F160C94E70A0C94FF0D0C94E70AED
:100050000C94E70A0C94DD0E0C94E70A0C94E70A62
:100060000C94E70A0C94E70A3E2041204E205220CF
:1000700056205A205E2069202C26312636265E2600
:1000800085268C26912698269E26A426A826AC2670
:10009000B726C226CD26DA26FB26062717271327E2
:1000A000522756275B2760278D2790279227942772
:1000B000962798279C27A127AC27B627BA27C427BD
:1000C000CE27D827E22707634236B79BD8A71A392D
:1000D000685618AEBAAB558C1D3CB7CC5763BD6D96
:1000E000EDFD753EF6177231BF000000803F00EB5A
:1000F000DED0BFAD9781001522304153697F0004E7
:10010000080C1014181C2023272B2F33373B3F3BA0
:1001100037332F2B2723201C1814100C080400FC45
:10012000F8F4F0ECE8E4E0DDD9D5D1CDC9C5C1C51E
:10013000C9CDD1D5D9DDE0E4E8ECF0F4F8FC00005D
:1001400000000000000000000000000000000000AF
:1001500000000000000000000000000000007F7FA1
:100160007F7F7F7F7F7F7F7F7F7F7F7F7F7F7F7F9F
:100170007F7F7F7F7F7F7F7F7F7F7F7F7F7F0FF08E
:10018000000100020003000400050001FF02FF005F
:10019000FE0101FE00FF02FF01000405070230849A
:1001A0000001010202030404050506070708090906
:1001B0000A0B0B0C0D0D0E0F0F101112121314144D
:1001C0001516171718191A1B1B1C1D1E1F1F20217F
:1001D0002223242525262728292A2B2C2D2E2F2F94
:1001E000303132333435363738393A3B3D3E3F4093
:1001F00041424344454648494A4B4C4D4F50515269
:1002000053555657595A5B5C5E5F6062636466671C
:10021000696A6B6D6E707173747677797A7C7D7FA5
:100220000B0D1113171D1F25292B2F353B3D434760
:10023000494F53596165676B6D717F83898B9597C2
:100240009DA3A7ADB3B5BFC1C5C7D3DFE3E5E9EF54
:10025000F1FB001522304153697F000000000000CF
:10026000000000000000000000000000000000008E
:10027000000000000000000000000000000000007E
:10028000000000000000000000000000000000006E
:10029000000000000000000000000000000000005E
:1002A000000000000000000000000000000000004E
:1002B000000000000000000000000000000000003E
:1002C000000000000000000000000000000000002E
:1002D000000000000000000000000000000000001E
:1002E000000000000000000000000000000000000E
:1002F00000000000000000000000000000000000FE
:1003000000000000000000000000000000000000ED
:1003100000000000000000000000000000000000DD
:1003200000000000000000000000000000000000CD
:1003300000000000000000000000000000000000BD
:1003400000000000000000000000000000000000AD
:10035000000000000000000000001515151515151F
:100360001515151515141414141414141414141448
:100370001414141414141313131313131313131347
:100380001313131313131313121212121212121245
:100390001212121212121212121211111111111143
:1003A0001111111111111111111111111110101040
:1003B000101010101010101010101010101010103D
:1003C0000F0F0F0F0F0F0F0F0F0F0F0F0F0F0F0F3D
:1003D0000F0F0F0F0E0E0E0E0E0E0E0E0E0E0E0E39
:1003E0000E0E0E0E0E0E0E0E0D0D0D0D0D0D0D0D35
:1003F0000D0D0D0D0D0D0D0D0D0D0D0D0D0C0C0C30
:100400000C0C0C0C0C0C0C0C0C0C0C0C0C0C0C0C2C
:100410000C0C0B0B0B0B0B0B0B0B0B0B0B0B0B0B2A
:100420000B0B0B0B0B0B0B0B0B0A0A0A0A0A0A0A23
:100430000A0A0A0A0A0A0A0A0A0A0A0A0A0A0A0A1C
:10044000090909090909090909090909090909091C
:10045000090909090909090808082222222222217A
:100460002121212121212121212120202020202082
:100470002020202020201F1F1F1F1F1F1F1F1F1F86
:100480001F1F1E1E1E1E1E1E1E1E1E1D1D1D1D1D8F
:100490001D1D1D1D1D1D1D1C1C1C1C1C1C1C1C1C95
:1004A0001C1C1C1C1B1B1B1B1B1B1B1B1B1B1B1B98
:1004B0001A1A1A1A1A1A1A1A1A1A191919191919A2
:1004C00019191919191919181818181818181818A5
:1004D00018181818171717171717171717171616AA
:1004E00016161616161616161616161615151515B0
:1004F00015151515151515151514141414141414B3
:1005000014141414141414141313131313131313B3
:1005100013131212121212121212121212121212B9
:1005200012111111111111111111111111111111BA
:1005300010101010101010101010101010101010BB
:100540000F0F0F0F0F0F0F0F0F0F0F0E0E0E0E0EC0
:100550000E0E0E0E0E0E0E0E0E0E30303030302FF0
:100560002F2F2F2F2F2E2E2E2E2E2E2E2E2D2D2DA9
:100570002D2D2D2D2D2D2C2C2C2C2C2C2B2B2B2BB9
:100580002B2B2B2B2B2A2A2A2A2A2A2A2A2A2929C8
:1005900029292929282828282828282828272727DA
:1005A00027272727272727262626262626252525E7
:1005B00025252525252525242424242424242424F4
:1005C0002323232323232322222222222222222204
:1005D000222121212121212121212120202020200F
:1005E000201F1F1F1F1F1F1F1F1F1F1F1E1E1E1E1E
:1005F0001E1E1D1D1D1D1D1D1D1D1D1D1D1C1C1C2C
:100600001C1C1C1C1C1C1C1C1B1B1B1B1B1B1B1A33
:100610001A1A1A1A1A1A1A1A1A1A19191919191940
:100620001919191919181818181818181717171749
:100630001717171717171717161616161616161652
:10064000161616161515151515151514141414145B
:100650001414141414141413131341414040404053
:1006600040403F3F3F3F3F3E3E3E3E3E3E3D3D3DA4
:100670003D3D3D3C3C3C3C3C3C3B3B3B3B3B3B3ABF
:100680003A3A3A3A3A3939393939393838383838DA
:1006900038373737373737363636363636353535F5
:1006A000353535353434343434343333333333330C
:1006B0003232323232323231313131313130303026
:1006C0003030302F2F2F2F2F2F2F2E2E2E2E2E2E3D
:1006D0002E2D2D2D2D2D2D2C2C2C2C2C2C2C2B2B54
:1006E0002B2A2A2A2A2A2A2A292929292929292872
:1006F0002828282828282727272727272726262687
:10070000262626262525252525252524242424249A
:1007100024242323232323232323222222222222AD
:1007200022212121212121212120202020202020BF
:100730001F1F1F1F1F1F1F1F1E1E1E1E1E1E1E1ED1
:100740001D1D1D1D1D1D1D1C1C1C1C1C1C1C1C1BE3
:100750001B1B1B1B1B1B1B1A1A1A535352525252A0
:10076000525251515150505050504F4F4F4E4E4E8B
:100770004E4E4E4D4D4D4C4C4C4C4C4C4B4B4B4BB4
:100780004B4B4A4A4A4949494949494848484747D9
:100790004747474746464645454545454544444401
:1007A0004343434343434342424241414141414128
:1007B0004040403F3F3F3F3F3F3F3E3E3E3D3D3D4F
:1007C0003D3D3D3C3C3C3C3B3B3B3B3B3B3A3A3A72
:1007D0003A3A3A3A39393938383838383838373790
:1007E00037363636363636363535353534343434B4
:1007F00034343333333332323232323232313131D4
:1008000030303030303030302F2F2F2E2E2E2E2EF5
:100810002E2E2D2D2D2D2C2C2C2C2C2C2C2B2B2B13
:100820002B2A2A2A2A2A2A2A2A292929292929292E
:100830002828282827272727272727272626262648
:100840002525252525252524242424232323232366
:1008500023232322222222212121696968686867D3
:100860006767676767666665656564646463636335
:100870006262626262626161616060605F5F5F5E6E
:100880005E5E5D5D5D5D5D5D5C5C5C5B5B5B5A5AA5
:100890005A595959585858585858575757565656DC
:1008A000555555555454545454545353535252520D
:1008B000515151505050504F4F4F4F4F4F4E4E4E41
:1008C0004D4D4D4C4C4C4C4B4B4B4A4A4A4A4A4A74
:1008D0004A494949484848474747474646464545A3
:1008E00045454545454444444343434342424241D0
:1008F0004141404040404040403F3F3F3F3E3E3E00
:100900003D3D3D3D3C3C3C3C3C3C3C3B3B3B3B3A29
:100910003A3A393939393838383837373737373755
:10092000373636363635353535343434333333337C
:1009300032323232323232323131313130303030A3
:100940002F2F2F2F2E2E2E2D2D2D2D2D2D2D2D2CCD
:100950002C2C2C2B2B2B2B2A2A2A7F7F7E7E7E7DF4
:100960007D7D7C7C7C7B7B7A7A7A797979787878E2
:10097000777777767676757575747474737373722A
:1009800072727171717070706F6F6F6E6E6E6D6D6F
:100990006D6C6C6C6B6B6B6A6A6A696969686868B4
:1009A00067676767666666656565646464636363F5
:1009B000626262616161616060605F5F5F5E5E5E36
:1009C0005D5D5D5C5C5C5C5B5B5B5A5A5A59595976
:1009D00059585858575757565656565555555454B2
:1009E0005453535353525252515151515050504FEE
:1009F0004F4F4E4E4E4E4D4D4D4C4C4C4C4B4B4B29
:100A00004A4A4A4A49494949484848474747474660
:100A10004646454545454444444443434342424297
:100A20004241414141404040403F3F3F3E3E3E3ECB
:100A30003D3D3D3D3C3C3C3C3B3B3B3B3A3A3A3AFE
:100A40003939393938383837373737363636363531
:100A5000353535343434343333330000000000008E
:100A60000000000000000000000000000000000086
:100A70000000000000000000000000000000000076
:100A80000000000000000000000000000000000066
:100A90000000000000000000000000000000000056
:100AA0000000000000000000000000000000000046
:100AB0000000000000000000000000000000000036
:100AC0000000000000000000000000000000000026
:100AD0000000000000000000000000000000000016
:100AE0000000000000000000000000000000000006
:100AF00000000000000000000000000000000000F6
:100B000000000000000000000000000000000000E5
:100B100000000000000000000000000000000000D5
:100B200000000000000000000000000000000000C5
:100B300000000000000000000000000000000000B5
:100B400000000000000000000000000000000000A5
:100B500000000000000000000000EBEBEBECECEC10
:100B6000ECECEDEDEDEDEEEEEEEEEEEFEFEFEFEFA8
:100B7000F0F0F0F0F0F1F1F1F1F2F2F2F2F2F3F361
:100B8000F3F3F3F4F4F4F4F4F5F5F5F5F5F6F6F61D
:100B9000F6F6F7F7F7F7F7F8F8F8F8F8F8F9F9F9DB
:100BA000F9F9FAFAFAFAFAFBFBFBFBFBFBFCFCFC9B
:100BB000FCFCFDFDFDFDFDFDFEFEFEFEFEFFFFFF5C
:100BC000FFFFFF0000000000000101010101010220
:100BD00002020202020303030303030404040404E5
:100BE00004050505050505060606060606060707AB
:100BF0000707070708080808080808090909090974
:100C0000090A0A0A0A0A0A0A0B0B0B0B0B0B0B0C3C
:100C10000C0C0C0C0C0C0D0D0D0D0D0D0D0E0E0E07
:100C20000E0E0E0E0F0F0F0F0F0F0F0F10101010D4
:100C300010101010111111111111111212121212A3
:100C40001212121313131313131313131414141473
:100C500014141414151515151515DEDEDFDFDFE08D
:100C6000E0E0E1E1E1E2E2E3E3E3E4E4E4E5E5E559
:100C7000E5E6E6E7E7E7E8E8E8E9E9E9EAEAEAEBF2
:100C8000EBEBECECECECEDEDEEEEEEEEEFEFEFF08F
:100C9000F0F0F1F1F1F2F2F2F3F3F3F3F4F4F4F52E
:100CA000F5F5F6F6F6F7F7F7F7F8F8F8F9F9F9FACF
:100CB000FAFAFAFBFBFBFBFCFCFDFDFDFDFEFEFE74
:100CC000FEFFFFFFFF00000001010102020202031C
:100CD00003030304040405050505060606060707C5
:100CE000070708080809090909090A0A0A0A0B0B73
:100CF0000B0C0C0C0C0D0D0D0D0D0E0E0E0E0F0F22
:100D00000F101010101011111111121212121213D3
:100D10001313141414141415151515151616161688
:100D200016171717181818181819191919191A1A3F
:100D30001A1A1B1B1B1B1B1C1C1C1C1C1C1D1D1DF9
:100D40001D1D1E1E1E1E1F1F1F1F1F1F20202020B7
:100D500020212121212121222222D0D0D1D2D2D35F
:100D6000D3D3D4D5D5D5D6D6D7D7D8D8D9D9DADA1A
:100D7000DBDBDCDCDCDDDEDEDEDFDFE0E0E1E1E290
:100D8000E2E3E3E4E4E4E5E6E6E6E7E7E8E8E9E908
:100D9000E9EAEAEBEBECECEDEDEDEEEEEFEFF0F087
:100DA000F1F1F1F2F2F3F3F4F4F4F5F5F5F6F7F707
:100DB000F7F8F8F8F9F9FAFAFBFBFBFCFCFDFDFD8E
:100DC000FEFEFEFFFF000000010202020303030417
:100DD0000405050506060607070808080909090AA3
:100DE0000A0B0B0B0C0C0C0D0D0D0E0E0E0F0F0F36
:100DF00010101111111212131313131414141515CA
:100E0000161616171717171818191919191A1A1A62
:100E10001B1B1C1C1C1C1D1D1D1E1E1E1F1F1F20FE
:100E2000202021212121222222232323242424249F
:100E30002525252526262727272728282828292944
:100E4000292A2A2A2A2B2B2B2B2C2C2C2D2D2D2DED
:100E50002E2E2E2E2F2F2F303030BFC0C1C1C2C337
:100E6000C3C4C4C5C6C6C7C8C8C9CACACBCCCCCD02
:100E7000CDCECFCFD0D1D1D2D2D3D4D4D5D6D7D74F
:100E8000D8D8D9DADADBDBDCDDDDDEDEDFE0E0E19D
:100E9000E1E2E3E3E4E4E5E6E6E7E7E8E8E9EAEBF4
:100EA000EBECECEDEDEEEFEFF0F0F1F1F2F3F3F44B
:100EB000F4F5F5F6F6F7F7F8F9F9FAFAFBFBFCFCAE
:100EC000FDFDFEFEFFFF0001020203030404050511
:100ED00006060707080809090A0A0B0B0C0C0D0D7A
:100EE0000E0E0F0F101011111212121313141415ED
:100EF00015161717181819191A1A1A1B1B1C1C1D5E
:100F00001D1E1E1F1F1F20202121222222232324D9
:100F1000242525252626272728282829292A2A2B5B
:100F20002B2C2C2D2D2D2E2E2F2F2F3030313131DB
:100F30003232333333343435353536363637373865
:100F400038383939393A3A3A3B3B3C3C3C3D3D3DF7
:100F50003E3E3E3F3F3F40404041ADAEAFB0B0B2FD
:100F6000B2B3B4B5B5B6B7B8B9B9BBBBBCBDBEBFFB
:100F7000BFC1C1C2C3C4C5C5C6C7C8C8C9CACBCC16
:100F8000CCCDCECFD0D0D1D2D3D4D4D5D6D7D7D83C
:100F9000D9DADBDBDCDDDDDFDFE0E1E1E2E3E4E564
:100FA000E5E6E7E7E8E9EAEAEBECECEDEEEFF0F096
:100FB000F1F2F2F3F4F4F5F6F7F8F8F9F9FAFBFBCD
:100FC000FCFDFDFEFFFF000102030304050506070B
:100FD000070808090A0A0B0C0C0D0E0E0F10101151
:100FE00012121314141516161717181819191A1B9C
:100FF0001B1C1D1D1E1F1F202121212223232425F0
:1010000025262727272829292A2A2B2C2C2C2D2E48
:101010002E2F3030303132323334343435363637A7
:10102000373838393A3A3A3B3B3C3C3D3D3E3F3F0E
:101030003F4041414142434343444545454647477C
:1010400047484949494A4B4B4B4C4C4C4D4E4E4EF0
:101050004F5050505151525252539798999A9B9DCC
:101060009E9E9FA1A2A3A4A5A6A7A8A9AAACACAD29
:10107000AEB0B1B1B2B4B5B6B6B8B9BABBBCBDBE0C
:10108000BFC0C1C2C3C4C4C6C7C8C9C9CBCCCDCEFA
:10109000CED0D1D2D3D3D4D6D7D7D8D9DADCDCDDF1
:1010A000DEDFE0E1E1E3E4E5E6E6E7E8E9EBEBECEF
:1010B000EDEEEFEFF0F1F2F3F4F5F6F7F8F9F9FAF7
:1010C000FBFCFDFEFEFF0001020304050607070806
:1010D000090A0B0C0C0D0E0F10111112131415151B
:1010E000161718191A1A1B1C1D1D1E1F1F2021223E
:1010F000232424252627282929292A2B2C2D2D2E67
:101100002F30313232323334353637373738393A97
:101110003B3C3C3C3D3E3F404041414243444545D1
:101120004546474849494A4A4B4C4C4D4E4F4F4F14
:101130005051525253545455555657585858595A5D
:101140005A5B5C5D5D5D5E5E5F60616162626263B1
:101150006465656667676768686981828485868873
:10116000898A8B8D8E8F919293949697989A9B9C57
:101170009D9FA0A1A2A4A5A6A7A9AAABACAEAFB003
:10118000B1B2B4B5B6B7B8BABBBCBDBEC0C1C2C3BC
:10119000C4C6C7C8C9CACBCDCECFD0D1D2D4D5D67C
:1011A000D7D8D9DADBDDDEDFE0E1E2E3E4E6E7E849
:1011B000E9EAEBECEDEEEFF0F2F3F4F5F6F7F8F91F
:1011C000FAFBFCFDFEFF0001030405060708090AFF
:1011D0000B0C0D0E0F101112131415161718191AE7
:1011E0001B1C1D1E1F2021222323242526272829DE
:1011F0002A2B2C2D2E2F30313232333435363738DE
:10120000393A3B3C3C3D3E3F4041424343444546E6
:10121000474849494A4B4C4D4E4F4F5051525354F9
:10122000545556575858595A5B5C5C5D5E5F606018
:1012300061626363646566676768696A6A6B6C6D3F
:101240006D6E6F7070717272737475757677777872
:10125000797A7A7B7C7C7D7E7E7F2100230025004D
:10126000270029002C002E003100340037003A00FE
:101270003E004100450049004E00520057005C000E
:10128000620068006E0075007B0083008B00930095
:101290009C00A500AF00B900C400D000DC00E9004C
:1012A000F70006011501260137014A015D017201AF
:1012B00088019F01B801D201EE010B022A024B0204
:1012C0006E029302BA02E40210033F037003A40308
:1012D000DC03170455049704DD0427057505C805CC
:1012E00020067D06E0064907B8072D08A9082D0944
:1012F000B9094D0AEA0A900B400CFA0CC00D910E88
:101300006F0F5A1053115B1272139A14D4152017D1
:101310008018F519801B231DDE1EB420A622B524DB
:10132000E4263429A72B402E0031EA330037453A12
:10133000BC3D68414C456B49C84D68524F57805C75
:101340000062D467006E8A74797BD082978AD592C6
:10135000909BD0A49DAEFFB8FFC3000005000E0017
:101360001B002E004D007B00C3003201DD01E402B2
:101370007904E806A80A6F1054199819410EF2076B
:101380006E047A026301C800710041002700180052
:101390000F000B00080007000600CC0C77075B0469
:1013A0008B027D01DF0083004E002F001C00120025
:1013B0000C000800060005000400000000080011F1
:1013C00000190022002A0033003B0044004C005565
:1013D000005D0066006E0077FF7F87081C05100324
:1013E000D7011B01AA0067003E00260018000F006D
:1013F0000A000700050004000300020202020202C4
:1014000002020202020303030303030303030303B1
:101410000303040404040404040405050505050588
:101420000606060606070707070708080809090948
:101430000A0A0A0B0B0B0C0C0D0D0E0E0F0F1011E0
:1014400011121313141516161718191A1B1C1D1E2A
:10145000202122242526282A2B2D2F3133353739D8
:101460003B3E404345484B4E5154585B5F63676B6E
:101470006F74787D82888D93999F404041414142AD
:10148000424243434444444545454646474747480E
:10149000484849494A4A4A4B4B4C4C4D4D4D4E4E9B
:1014A0004F4F4F505051515252535353545455551E
:1014B00056565757585859595A5A5B5B5B5C5C5D96
:1014C0005D5E5F5F60606161626263636464656505
:1014D000666767686869696A6A6B6C6C6D6D6E6F68
:1014E0006F707071727273737475757677777879BF
:1014F000797A7B7B7C7D7D7E7F7F80818182838406
:1015000084858686878889898A8B8C8C8D8E8F8F3F
:101510009091929393949596979798999A9B9C9C67
:101520009D9E9FA0A1A2A2A3A4A5A6A7A8A9AAAB7D
:10153000ABACADAEAFB0B1B2B3B4B5B6B7B8B9BA83
:10154000BBBCBDBEBFC0C1C2C3C4C5C6C8C9CACB6F
:10155000CCCDCECFD0D2D3D4D5D6D7D8DADBDCDD44
:10156000DEE0E1E2E3E4E6E7E8E9EBECEDEFF0F101
:10157000F3F4F5F6F8F9FBFCFDFFC621C5211124B3
:101580001FBECFEFD8E0DEBFCDBF24E0ACE7B1E0B7
:1015900001C01D92A93DB207E1F711E0A0E0B1E062
:1015A000E6E2FBE502C005900D92AC37B107D9F732
:1015B0001AE0CEEBDAE004C02197FE010E94282851
:1015C000CD3BD107C9F70E9489160C94862D0C9447
:1015D00000001F920F920FB60F9211240F931F93CA
:1015E0002F933F934F935F936F937F938F939F932B
:1015F000AF93BF93CF93DF93EF93FF938091C20498
:101600008F5F83708093C20481119EC08091C0045B
:101610009091C1049C01205C3F4F283E13E03107AC
:1016200028F43093C1042093C0040BC0885A93401F
:101630009093C1048093C0048091DF028F5F8093F8
:10164000DF028091C3048093BE042091C4042093E0
:10165000BF049091DA02E82FF0E091110AC0809166
:10166000D70290E0982F8827E80FF91FE65AF54F28
:101670001AC087FF0FC08091D70290E0982F88276B
:10168000E80FF91FE552FE4FE491FF27E1950CF4B6
:10169000F0950DC08091D70290E0982F8827E80F31
:1016A000F91FE65AFD4FE4910E2E000CFF0BF0934C
:1016B000BD04E093BC043091DB02822F90E04091A6
:1016C000BC045091BD04311112C02091D80230E009
:1016D000322F2227FC01E20FF31FE65AF54FE49167
:1016E000CA018E0F911DE7FD9A95FC0128C030912B
:1016F000D6023217A0F42091D8023091D602831B73
:10170000910930E0322F2227820F931FFC01E65A05
:10171000FD4FE491FF27E1950CF4F0950EC0209168
:10172000D80230E0322F2227820F931FFC01E65AA5
:10173000FD4FE4910E2E000CFF0BE40FF51FF0930C
:10174000BD04E093BC0482C1813009F065C0809182
:10175000DC022091BC043091BD04811119C0E091DC
:101760007C01F0E0E05EFD4F84914091B90490E08F
:10177000840F911D8093B904E091B904F0E0E3581F
:10178000FE4F8081F901E80FF11D87FDFA9529C010
:101790004091D6028091BE04881F8827881F91E05F
:1017A0005091BF04451708F090E0891771F08091BF
:1017B000D90290E0FC01EE5AFD4F8491482F552745
:1017C00041950CF45095FA010AC08091D90290E03D
:1017D000FC01EE5AFD4F8491E82F880FFF0BE20FBA
:1017E000F31FF093BD04E093BC048091BC0490917E
:1017F000BD04959587958F3791053CF481385FEF4F
:1018000095072CF481E89FEF02C08FE790E090935A
:10181000BD048093BC041AC1823009F0AFC080912E
:10182000D4020091BC041091BD04813009F054C071
:101830008091CF026091D0027091D102A091CF022D
:10184000F091CE024091D2025091D302E091CE02AB
:10185000282F2003E001219FD00D11241A2F1603F9
:10186000C001179F900D11249E01281B390B1F2FBB
:101870001603C001179F900D1124280F391F1E2F2A
:101880001403C001159F900D1124281B390B220F42
:10189000232F221F330B260F371F3093D1022093A3
:1018A000D0027091CF026091CF027203C001739F8A
:1018B000900D112464039001659F300D1124821B4B
:1018C000930B880F892F881F990B840F951F909376
:1018D000D3028093D202BAC08091D402823009F040
:1018E00048C04091D0025091D1026091CE02209127
:1018F000D2023091D302F091CF02E091CF02640383
:10190000C001659F900D11246F2F6203D001639F6A
:10191000B00D11248A1B9B0B6E2F6003D001619FB9
:10192000B00D11248A0F9B1F880F892F881F990BD8
:10193000481B590B5093D1024093D0020091CE0224
:101940001091CF020203B001039F700D1124140304
:10195000C001159F900D1124860F971F880F892FA6
:10196000881F990B281B390B3093D3022093D20286
:101970006DC01093D3020093D20268C02091D202AE
:101980003091D3022F3731053CF421388FEF3807DF
:101990002CF421E83FEF02C02FE730E03093D30270
:1019A0002093D2026091DE02109107016203A00130
:1019B000639F500D11246091BA047091BB0416030B
:1019C000C001179F900D1124840F951F880F892F38
:1019D000881F990B9093BB048093BA04281B390B82
:1019E0004091DD02429FC001439F900D1124803839
:1019F000904C54F04091DD02429FC001439F900DF6
:101A0000112480389F43B4F44091DD02429FC0010D
:101A1000439F900D11248038904C7CF04091DD0262
:101A2000429FC001439F900D1124880F892F881F6A
:101A3000990B05C08FE790E002C081E89FEF90937B
:101A4000BD048093BC0481588093B400FF91EF9152
:101A5000DF91CF91BF91AF919F918F917F916F91C6
:101A60005F914F913F912F911F910F910F900FBE5A
:101A70000F901F901895E42FF0E0E258FE4FE4918C
:101A80009E2F90958923440F440F01C0660F4A95FD
:101A9000EAF76E23862B0895CF92DF92EF92FF92A2
:101AA0000F931F93FC018585882309F46FC08485FB
:101AB000823071F130F4882309F45FC0813041F045
:101AC00065C0833009F441C0843009F443C05EC06E
:101AD00020813181A62FB0E00E94772D408551856D
:101AE000AFEFBFE78D01041B150B012E000C220B7D
:101AF000330B601771078207930728F082E0848711
:101B0000B187A08743C0640F751F718760873EC08F
:101B100022813381A62FB0E00E94772D2085318568
:101B2000A481B581A9014A1B5B0B6A01550FEE0820
:101B3000FF086C157D058E059F0528F083E08487DE
:101B4000B187A0871CC0C9011DC084819581918780
:101B5000808715C026813781A62FB0E00E94772D9F
:101B6000408551858A01052E000C220B330B60172E
:101B700071078207930728F0148611861086158650
:101B800005C0CA01861B970B918780871F910F9113
:101B9000FF90EF90DF90CF900895DC011C968C9120
:101BA0001C9719962C911997813099F4822F922FB6
:101BB000990F990B97FF03C0919581959109EFE7D4
:101BC000F0E0E81BF109E056FE4F9491EFE7E91BC6
:101BD0000DC0E22FF22FFF0FFF0BF7FF03C0F195AF
:101BE000E195F109FF27E056FE4FE4911A968C919A
:101BF000882319F08E2F819508958E2F08951F92B6
:101C00000F920FB60F9211242F938F939F93EF9300
:101C1000FF938091C0009091C6008091CD028F5FAC
:101C20008F7320910601821304C084E080938C029C
:101C300008C0E091CD02F0E0E357FD4F9083809320
:101C4000CD02FF91EF919F918F912F910F900FBE39
:101C50000F901F9018951F920F920FB60F9211249C
:101C6000CF92DF92EF92FF920F931F932F933F93A8
:101C70004F935F936F937F938F939F93AF93BF9394
:101C8000CF93DF93EF93FF93E9B0E0940E2D10E034
:101C9000C80126E0959587952A95E1F78170809394
:101CA0008502C7EBD4E0A5EBB4E06AE971E040E05F
:101CB00050E0FA01E256FE4FF490FE208881F816BB
:101CC00009F43CC0FB01849131969491F80102C063
:101CD000F595E7958A95E2F7E170FF27EE0FFF1F74
:101CE000EE0FFF1F680102C0D594C7949A95E2F7E2
:101CF000C6018170992723E0880F991F2A95E1F783
:101D00008E2B9F2B2C9130E0359527953595279577
:101D1000822B932B8C93FC01E657FE4F8491FA01A2
:101D2000EE0FFF1FE158FD4F208131816901C81A74
:101D3000D10887FDD394D182C082F8822196119672
:101D40006E5F7F4F4130510519F041E050E0B1CF57
:101D5000FF91EF91DF91CF91BF91AF919F918F91C3
:101D60007F916F915F914F913F912F911F910F91B3
:101D7000FF90EF90DF90CF900F900FBE0F901F90CD
:101D800018951F920F920FB60F9211248F939F9365
:101D9000EF93FF9383B18095982F9170E3E8F2E081
:101DA0009083869581708183FF91EF919F918F91B0
:101DB0000F900FBE0F901F9018951F920F920FB6A5
:101DC0000F9211248F93EF93FF93E091B404F0E00E
:101DD00080917900EA57FD4F80838091B3048F5F33
:101DE0008A3018F48093B30402C01092B304E091D7
:101DF000B304F0E0E058FE4FE491E093B404809126
:101E0000B40480937C0080917C00806480937C008B
:101E100080917C00806280937C008FE880937A00C0
:101E200080917A00806480937A00FF91EF918F9186
:101E30000F900FBE0F901F9018952A98660F606440
:101E40006EBD0DB407FEFDCF4EBD0DB407FEFDCF38
:101E50002EBD0DB407FEFDCF3EBD0DB407FEFDCF78
:101E60002A9A089508950895089508950895089563
:101E7000FC0184819581FC01E652FF4F308123E013
:101E8000231B2083E754F1096F5F81E090E002C0DB
:101E9000880F991F6A95E2F70197918380830895CF
:101EA000DC011696ED91FC9117970680F781E02DE5
:101EB000603110F011820895618308950F931F938C
:101EC000CF93DF936C3409F46BC0EC016D3458F59B
:101ED000683409F453C0C8F4653009F444C0673469
:101EE00009F449C0613009F096C050E08A01A3E0CE
:101EF00015950795AA95E1F7402F60E088859985AB
:101F00000E94D915402F62E070C0888599856A3497
:101F1000E9F150E06B34E8F573E0559547957A9513
:101F2000E1F76EE064C0603509F44DC070F4888557
:101F300099856E34E9F108F043C050E033E05595DF
:101F400047953A95E1F769E052C0623509F448C017
:101F5000E8F1633509F447C06B3709F05CC00E81C6
:101F60001F81C0E04AC050E0F3E055954795FA95CF
:101F7000E1F76FE03AC0440F64E02AC050E0E3E0CC
:101F800055954795EA95E1F76BE02FC0440F63E064
:101F900021C063E0559547956A95E1F76DE027C04C
:101FA000440F62E0DC0118968D919C91199712C044
:101FB00050E023E0559547952A95E1F76AE017C070
:101FC000440F60E007C0440F61E002C0440F65E0C9
:101FD00088859985DF91CF911F910F910C946015A1
:101FE000440F61E002C0440F63E088859985DF916A
:101FF000CF911F910F910C94D915F8018281938193
:10200000DC01ED91FC910280F381E02D6C2F0995AC
:10201000CF5FC03891F7DF91CF911F910F91089555
:10202000DC011696ED91FC911797808591850C94B3
:1020300060150F931F93CF93DF93EC01AE81BF81A7
:102040001D968C911D97FE01E454FF4F8083AE01D5
:1020500042545F4FFA018081681311C08FE780837B
:102060009D01225F3F4F80E0F90191919F019923EB
:1020700019F0FA01808303C08F5F8038A9F78E01C1
:1020800001541F4FF801808168130FC010829D0119
:1020900022573F4F8FE7F90192919F01992319F041
:1020A000F801808302C08150B1F71D968C91811197
:1020B0000BC094E098AB81E089AB9EAF8FAFDF910E
:1020C000CF911F910F910895DA01EC91F0E0EE0F9E
:1020D000FF1FE65AFD4E65917491CE01885A9F4FBD
:1020E0000E941115D801EC91F0E0EE0FFF1FE65AA7
:1020F000FD4E65917491CE018B599F4FDF91CF9129
:102100001F910F910C941115EF92FF920F931F9353
:10211000CF938C01C62FDC011696ED91FC91179799
:102120008585F801E454FF4F8083329680816817DB
:1021300008F460837801BFEBEB0EF11CD7018C91A2
:102140008C1708F4CC938081C8130DC0EC2FF0E0FD
:10215000EE0FFF1FE65AFD4E65917491C801885A33
:102160009F4F0E941115F7018081C8130DC0EC2FFD
:10217000F0E0EE0FFF1FE65AFD4E65917491C80125
:102180008B599F4F0E94111581E0D801D0968C93F6
:10219000D097D1968C93D1979F968C919F978823B7
:1021A00021F09D961C921E929C9781E0F80186AFCB
:1021B00087AF85AD882311F013AE12AEF801EF5A48
:1021C000FF4F15821482CF911F910F91FF90EF90D6
:1021D0000895DF92EF92FF920F931F93CF93DF93B7
:1021E0007C01062FDC011896DC9018971496CD918F
:1021F000DC911597CC51DF4F11E019831B8241E030
:102200006D2D8A810E943B0D8A8340E06D2D0E94D6
:102210003B0D8A831883D7011696ED91FC91179791
:102220000680F781E02D083F40F10C3F58F40A3F4B
:10223000B0F4083F09F01DC181859285019692870F
:10224000818717C10C3F09F014C1148282819381E8
:10225000DC01ED91FC910680F781E02D27C012860C
:10226000118614861386148382819381DC01ED919B
:10227000FC910480F581E02D19C0003FA0F110927F
:10228000C804003FD9F4158316828FEF80930A01AA
:10229000809309018085882309F4EBC082819381B2
:1022A000DC01ED91FC910084F185E02DDF91CF916F
:1022B0001F910F91FF90EF90DF900994073F09F075
:1022C000D8C08581882309F4D4C0158280858823ED
:1022D00009F4CFC082819381DC01ED91FC910484EB
:1022E000F585E02DE3CF07FF0AC00093C8041093E3
:1022F000C7041092C6041092C5041582BAC0858125
:10230000882371F1668181E0860F8683813019F41C
:1023100000930A01AEC0823019F400930901A9C0EC
:1023200090910A0180819813A4C09091090187813E
:1023300098139FC08085882309F49BC08281938174
:10234000DC01ED91FC9162500284F385E02D402F79
:10235000DF91CF911F910F91FF90EF90DF90099443
:102360009091C804992309F484C08091C7048823FC
:1023700029F00093C6041092C7047BC00093C504E3
:102380008181282F206992131BC00023C9F060911E
:10239000C604DF01A60FB11D1E968C911E978111F8
:1023A00061C01E961C9385858F5F8587828193818E
:1023B000DC01ED91FC910190F081E02D402F51C0A6
:1023C000382F3068931721F092131BC0011119C0E8
:1023D0006091C604DF01A60FB11D1E968C911E9759
:1023E000882309F43FC01E961C92858581508587FD
:1023F00082819381DC01ED91FC910280F381E02DDB
:1024000020C0282F206E92131EC082819381DC0190
:10241000ED91FC91011105C00288F389E02D61E87E
:1024200010C00F3729F40288F389E02D6FE709C047
:10243000602F70E060547109660F771F0288F3897E
:10244000E02D09950FC0806B98130CC08281938199
:10245000DC01ED91FC910088F189E02D402F609125
:10246000C60409951092C6041092C50481E08093B9
:10247000C704DF91CF911F910F91FF90EF90DF90F4
:102480000895EF920F936130A9F4DC011696ED9157
:10249000FC911797218D223169F4FC0140858481DC
:1024A000958123E0E22E01E0242F68E086529F4FC1
:1024B0000E940C160F91EF9008954F925F926F92C9
:1024C0007F928F929F92AF92BF92CF92DF92EF92C4
:1024D000FF920F931F93CF93DF93CDB7DEB767972C
:1024E0000FB6F894DEBF0FBECDBF8C01611117C0CF
:1024F000413009F03EC1DC011696ED91FC91179731
:10250000F18C008511856F2DC8014F8B0E947315CA
:102510004F8948276F2DC8010E948A152AC1613052
:1025200009F011C1FC0186819781DC0159962C913B
:102530000480F581E02D223109F0E4C0413021F41E
:10254000E652FF4F408315C1DF01A652BF4F1296DE
:102550001C9212973EE7E32E31E0F32EF70194919F
:1025600011968C91119789238C93D80114968D9193
:102570009C911597FC01E652FF4F23E02083E85918
:10258000F109808191811696ED91FC9117979E013A
:102590002F5F3F4F690162E1813D9740B8F180852F
:1025A00091850E94C115D8011696ED91FC9117975F
:1025B0000084F185E02DB6E18B9FB00111249F01CD
:1025C000A6018AE08C0DD9019D919D01DA019D93B0
:1025D000AD018A13F8CF8F01035F1F4F9E01255F66
:1025E0003F4FCF014396D8014D918D01D9014D93B5
:1025F0009D0108171907B9F78285898B83858A8B16
:1026000046E150E0C6010E94012DB3C0808591854E
:102610000E94C115D8011696ED91FC91179700857F
:102620001185B6E18B9FB001112446E150E0C6014F
:102630000E94E92C4601512C2FE7A22E21E0B22E58
:102640003401F7014491452C440CD4018D914D0186
:102650004823642DC8010E94D915F5014491D30186
:102660008C91482350E094E0559547959A95E1F771
:1026700061E0640DC8010E94D9155394BAE05B1261
:10268000DFCF8AE0E82EF12CF601EE0DFF1D66EF9C
:102690006E0D4081C8010E946015EFEFEE1AFE0A30
:1026A000F0E1EF16F10481F7E12CF12C498950E0BB
:1026B0000E2C02C0559547950A94E2F741706E2D95
:1026C000C8010E948A152FEFE21AF20A38E0E316D9
:1026D000F10461F7E12CF12C4A8950E00E2C02C084
:1026E000559547950A94E2F7417068E06E0DC80170
:1026F0000E948A158FEFE81AF80A98E0E916F104AB
:1027000059F737C0DC01ED90FC90413069F4128A32
:10271000E652FF4F4083D701ED91FC914FE7D8017E
:1027200019966C91099525C0628BE652FF4F23E004
:102730002083D7011296ED91FC911397D801199639
:102740006C91099516C06230A1F4413091F4DC011E
:102750001696ED91FC911797DF01A95BBF4F4C9145
:102760004F5F433008F040E063E1808591850E942F
:10277000D91567960FB6F894DEBF0FBECDBFDF91B7
:10278000CF911F910F91FF90EF90DF90CF90BF906E
:10279000AF909F908F907F906F905F904F90089533
:1027A000AF92BF92CF92DF92FF920F931F93CF937E
:1027B000DF931F92CDB7DEB75C016E3051F4DC01C0
:1027C0001896ED91FC911997838586FF50C081E1A1
:1027D0004AC06B30C1F5D5011896ED91FC9119975F
:1027E000838583FF44C080E1F501818FD5015A962E
:1027F000ED91FC915B970190F081E02DC080D1803C
:102800005996FC90599718960D911C9119976F2D18
:10281000C8010E947315282F6F2DC80129830E94BB
:10282000C115482F2981F501618D828D938DF601A7
:102830000F90DF91CF911F910F91FF90DF90CF907C
:10284000BF90AF9009946F3091F4D5011896ED9137
:10285000FC911997838590E0880F892F881F990B29
:10286000892B29F082E1D50159968C93BFCFF501D0
:10287000618FBCCF1F93CF93DF93EC01611108C030
:10288000642F8E819F81DF91CF911F910C94D01383
:10289000613099F5EC81FD8187AD813021F5698545
:1028A0008FEF860F8E3748F5122F8E819F81DC01C6
:1028B000ED91FC910280F381E02D0995898511232A
:1028C00011F08F5F01C0815089878E819F81DC016B
:1028D000ED91FC910190F081E02D4FE76985DF914A
:1028E000CF911F910994EE81FF81618D8085918543
:1028F000DF91CF911F910C94D915DF91CF911F914A
:1029000008951F920F920FB60F9211248F939F93E9
:1029100080917E02882361F08091010185BD8091C4
:1029200005018093CA048091000187BD10927E0248
:102930009091C4048091CA04890F8093C4049F912C
:102940008F910F900FBE0F901F9018951F920F92AE
:102950000FB60F9211242F938F939F9380917D0236
:10296000882371F080910201909103019093890076
:1029700080938800809104018093C90410927D02A5
:102980009091C3042091C3048091C904820F809365
:10299000C3048091CB04882331F08091C30489174C
:1029A00010F41092C4049F918F912F910F900FBE3D
:1029B0000F901F901895FC01E354FF4F608308951A
:1029C0000E94882CCF93DF93EC01AF81B8851097DC
:1029D00019F41A86198622C08E818823E9F048816D
:1029E00059818A819B81EC81FD818417950738F498
:1029F0009A012E1B3F0B0E94772D9F0106C09F015D
:102A0000241B350B0E94772D9A0140E050E00E9474
:102A1000552D3A87298702C0BA87A987DF91CF91C0
:102A20000895FC01808191816817790771F0848194
:102A300095816817790749F0718360839383828356
:102A400014861386CF010C94E2140895CF92DF927E
:102A5000EF92FF92CF936A017B01C22F682F880FFC
:102A6000770B880B990B0E94782920E030E04EEF1D
:102A700052E40E949B28A70196010E94A12A0E946D
:102A800015296B017C016C2F70E080E090E00E94C2
:102A900076299B01AC01C701B6010E94A12A20E062
:102AA00030E040E85FE30E942E280E940E2B0E9437
:102AB0004729862FCF91FF90EF90DF90CF90089518
:102AC000FC01E60FF11D4587DC0153968D919C9129
:102AD0005497009739F0DC01ED91FC910480F58169
:102AE000E02D09940895262F30E043E03595279591
:102AF0004A95E1F7820F931FFC01828590E0F8EF81
:102B00002F9F600D112402C0959587956A95E2F775
:102B1000817008950F931F93E62FF0E023E0F59561
:102B2000E7952A95E1F7562F28EFE29F500D1124E3
:102B3000E80FF91F01E010E020E030E004C0000FD2
:102B4000111F221F331F5A95D2F7442319F05285C3
:102B5000052B03C00095228502230287DC015396D2
:102B60008D919C915497009749F0DC01ED91FC9177
:102B70000280F381E02D1F910F9109941F910F9115
:102B80000895DC01262F2170E22FF0E0E258FE4F7D
:102B9000849170E075956795A60FB71F9C91892366
:102BA00090E0220F220F02C0959587952A95E2F7B3
:102BB0000895EF92FF920F931F93CF93DF937C01C1
:102BC000162F042FC62FD0E0D595C795462F4170FC
:102BD000CE0DDF1D602F88810E943B0D8883D701B9
:102BE00053968D919C915497009779F0DC01ED916B
:102BF000FC910190F081E02D402F612FDF91CF916A
:102C00001F910F91FF90EF900994DF91CF911F9149
:102C10000F91FF90EF900895CF92DF92EF920F9374
:102C2000CF93DF931F92CDB7DEB76C01842FF601EF
:102C30006283148241E0682F838129830E943B0DC7
:102C4000F601838340E02981622F0E943B0DF6014B
:102C5000838341E0602F81810E943B0DF6018183D7
:102C600040E06E2D0E943B0DF601818300830F90A2
:102C7000DF91CF910F91EF90DF90CF9008951F9249
:102C80000F920FB60F9211242F933F938F939F9320
:102C9000AF93BF938091D1049091D204A091D304BB
:102CA000B091D4043091D00423E0230F2D3720F4C9
:102CB0000196A11DB11D05C026E8230F0296A11D96
:102CC000B11D2093D0048093D1049093D204A0939B
:102CD000D304B093D4048091CC049091CD04A091FE
:102CE000CE04B091CF040196A11DB11D8093CC04F8
:102CF0009093CD04A093CE04B093CF04BF91AF9135
:102D00009F918F913F912F910F900FBE0F901F9029
:102D10001895CF93DF93CDB7DEB765970FB6F894CC
:102D2000DEBF0FBECDBF789484B5826084BD84B50C
:102D3000816084BD85B5826085BD85B5816085BDB6
:102D400080916E00816080936E001092810080916E
:102D500081008260809381008091810081608093F6
:102D60008100809180008160809380008091B1001B
:102D700084608093B1008091B00081608093B00046
:102D800080917A00846080937A0080917A008260DA
:102D900080937A0080917A00816080937A0080919C
:102DA0007A00806880937A001092C100E091E4027A
:102DB000F091E50281E08187148A8091C0008260F1
:102DC0008093C0001092C5008FE38093C40080916F
:102DD000C10080618093C1008091C10088608093B0
:102DE000C1008091C10080688093C1008091C100C2
:102DF0008F7D8093C100E851FF4F8081811133C1E5
:102E0000C090E602D090E702F8948091B6008F7BE4
:102E10008093B6008091B6008F7D8093B60080913C
:102E2000B00081608093B0008091B0008260809398
:102E3000B0008091B100877F8093B1008091B00095
:102E40008F7E8093B0008091B00080628093B0004C
:102E50008091B0008F7B8093B0008091B0008F771D
:102E60008093B0008091B10081608093B100809127
:102E7000B1008D7F8093B1008091B1008B7F8093F2
:102E8000B10080917000816080937000809180001B
:102E90008E7F80938000809180008D7F8093800062
:102EA00080918100886080938100809181008F7E75
:102EB0008093810080918100816080938100809166
:102EC00081008D7F80938100809181008B7F809332
:102ED0008100809102019091030190938900809379
:102EE000880080916F00826080936F0084B58E7F30
:102EF00084BD84B5826084BD85B5877F85BD85B579
:102F00008E7F85BD85B58D7F85BD85B5846085BD8A
:102F10008091000187BD80916E00826080936E0079
:102F2000789400E010E0D6018D919C91119718964D
:102F30000D90BC91A02DA00FB11FFC01208D318DF3
:102F40001D964C91602FC601F90109950F5F1F4F27
:102F50000630110541F710E0D601ED91FC91119773
:102F6000E488F588612F18968D919C9119970E949D
:102F7000C115482F612FC601F7010995612FD601B0
:102F800018968D919C9119970E947315D601ED9119
:102F9000FC910688F789E02D482F612FC60109951D
:102FA0001F5F1431C9F660E0C6010E94D0138FEF95
:102FB0009FE7F60197AB86AB11E017AF95AB84ABFB
:102FC000C601885A9F4FDC0116961C930E94E2149A
:102FD000C6018B599F4FFC0116830E94E214E091B9
:102FE000E402F091E502E651FF4F8081E091E602B4
:102FF000F091E7020680F781E02D8031E8F0118240
:103000004091E8028091E4029091E502EE24E3947D
:1030100003E0242F64E08B529F4F0E940C164091D6
:10302000E8028091E4029091E502242F64E0865248
:103030009F4F0E940C1617C08183E2CF6090DF0281
:1030400061101DC0E091E402F091E502E851FF4FEC
:103050008081882311F40C94C92080E090E0892BB2
:1030600011F00E9400000091E4021091E502F801C5
:10307000E851FF4F8081882309F322E0622E90E41B
:10308000F92E6801F9EECF0ED11C809106018F5FF9
:103090008F739091CD02891313C080918C02882385
:1030A000A9F1D8018D919C9160918C02DC01ED9188
:1030B000FC910484F585E02D099510928C0226C0C0
:1030C00080930601D8018D919C91E0910601F0E07A
:1030D000E357FD4F6081DC01ED91FC910284F385A3
:1030E000E02D0995F6018081803861F4E0910601B8
:1030F000F0E0E357FD4F80819091C00095FFFCCF39
:103100008093C600FA94F110C0CFC7CFC090E402FC
:10311000D090E5027601BCE1EB0EF11C2601E8E15E
:103120004E0E511C00E010E0A62CB12C77247394B5
:103130004601F8EE8F0E911C602FF801EA57FD4F03
:103140002081D7012C93F70133973081822F90E0B3
:10315000831B910997FF03C091958195910905976C
:1031600054F0D2018C91811106C07C9213961C926E
:103170001E92129713C0D2018C91882379F0129677
:103180008D919C9113978A0D9B1D13969C938E9302
:103190001297803D974010F0D2011C92D2018C9181
:1031A000882399F0231789F02083F401808181110D
:1031B0000CC0D6018D919C91DC01ED91FC910480B5
:1031C000F581E02DD7014C9109950F5F1F4FB5E0B8
:1031D000EB0EF11CE5E04E0E511C0630110509F016
:1031E000ABCF0091E4021091E5026801F6E3CF0E47
:1031F000D11C9801295C3F4F3F832E8358013BE34C
:10320000A30EB11CE12CF12C462C512C180148EED8
:10321000240E311C480159EE850E911C98012B5249
:103220003F4F3A8329832B5E3F4F3C832B837E2C79
:10323000F701ED57FD4F4081D6014C93413009F520
:10324000EE81FF8182819381840D951D938382831A
:103250002681378182179307A0F0D5018C918111C7
:1032600010C04C93F101808181110BC0D8018D9168
:103270009C91DC01ED91FC910280F381E02D6E2D9B
:103280000995EE81FF8180819581891710F4860D63
:103290008083AE81BF818C91891708F44EC0F601FE
:1032A0009081F50133972081921709F446C091303F
:1032B00051F421110DC013961C921E921297D50144
:1032C0001C9281E006C0911103C081E0213009F019
:1032D00080E09083EE81FF811082882371F1D1011B
:1032E0008C9181110EC0F80180819181DC01ED91FA
:1032F000FC910190F081E02DD6014C91672D09954C
:103300001CC0E114F104C9F4F60180818130A9F4F4
:10331000D4019C91903809F088C7D4011C9223E015
:10332000E981FA812083F4016081AB81BC818C91B9
:10333000682B8FEF93E00E94112DBFEFEB1AFB0A71
:10334000E9E0CE0ED11C2E813F81275F3F4F3F83A6
:103350002E8339E0A30EB11C43E0E416F10409F01A
:1033600066CFE090E402F090E5028701045F1F4F12
:1033700067015AE0C50ED11CC70102969F838E8358
:10338000A12CB12CD701A851BF4FBA83A983470103
:10339000BAEE8B0E911CF701EF5AFF4FFC83EB83C3
:1033A00022242394312C2701F9EE4F0E511C77244F
:1033B00073946A2DF501EE0FFF1FE158FD4F8081D8
:1033C0009181F80130812291321740F0AE81BF81A6
:1033D00012969C938E931197D8011C92D8018C91D0
:1033E0009081891710F4860D8C93EE81FF812181E5
:1033F000328183819481A901481B590BCA0157FD71
:1034000003969595879595958795009709F44DC0F6
:10341000AE81BF8114963C932E93139797FD03C002
:10342000F601708202C0D6011C92F8013597208106
:10343000222339F1EE81FF819081890F8083F80189
:10344000339790813197992379F0908189172CF0E7
:10345000891BAE81BF818C9314C087FF12C0890F76
:10346000EE81FF8180830DC0908189172CF09150EF
:10347000AE81BF819C9305C087FF03C0EE81FF81B1
:103480001082E981FA8180818111D6C6D7018D91A0
:103490009C91DC01ED91FC910680F781E02DD60135
:1034A0002C91AE81BF814C910995055F1F4FFBE0C8
:1034B000CF0ED11C2E813F81255F3F4F3F832E834E
:1034C000AA94AB2821F0AA24A394B12C72CF8091A6
:1034D000E4029091E502FC01E551FF4F2081260DA9
:1034E000208360E02081203120F0205120836F5F15
:1034F000F9CF662309F42BC1DC01AF5ABF4FE2E0DC
:10350000CE2EE62EF12CAD014E5F5F4F9D012E5D5C
:103510003F4F3A83298300E010E0FA012081222303
:1035200009F46DC0E981FA81208131812E0D3F1DA2
:1035300031832083FA01D088EFE7F1E07491EEE760
:10354000F1E0A490ED91FC911197002E02C0F69548
:10355000E7950A94E2F7E0FF2AC07D21E72FF0E02B
:1035600074E0F595E7957A95E1F72E173F0708F493
:1035700046C02E1B3F0BE981FA8131832083212C29
:10358000312C21012394002E04C0220C331C441C36
:10359000551C0A94D2F7910120953095ED91FC913C
:1035A00011972E233F2311963C932E9322C0DA20AD
:1035B000ED2DF0E02E173F0710F12E1B3F0BE98198
:1035C000FA8131832083212C312C21012394002E78
:1035D00004C0220C331C441C551C0A94D2F752011F
:1035E00041012D913C911197822A932A11969C9228
:1035F0008E92FA0120812F3F11F0215020830F5F1E
:103600001F4F4F5F5F4F29813A812E5F3F4F3A83B3
:1036100029830031110509F080CFAE5BBF4F31E047
:10362000C31619F0CC24C3946ECF8C0109521F4FDE
:10363000DC01A752BF4F2C0145ED440E511C7C010B
:1036400058EEE50EF11CF8012081222309F43FC059
:103650007C91760F7C93F201B080FD01339740811D
:10366000EFE7F1E02491242330E054E035952795ED
:103670005A95E1F7A22EEEE7F1E0C490C422FD01D5
:103680003197D080EFE7F1E044914D2150E0E4E044
:1036900055954795EA95E1F7EEE7F1E08490B2128F
:1036A00002C0741738F4BC1012C0D8207D1578F011
:1036B000BA1005C0741B7C93F201C08204C07D194E
:1036C0007C93F2012083F8012081215020830B5F3D
:1036D0001F4F1596F5E04F0E511CAE15BF0509F0B2
:1036E000B2CFDC01AC51BF4F11962C911197222320
:1036F00071F113968C911397680F13966C9313972F
:1037000012969C911297EFE7F1E08491EEE7F1E0D9
:1037100044913C91332361F09823892F90E044E059
:10372000959587954A95E1F7681788F0681B04C05E
:103730009423691760F0691B13966C93139781E0CB
:1037400038273C932F3F19F0215011962C9300916C
:10375000E4021091E502F801EF5AFF4FE080F1809A
:103760008091F1029091F202E816F90651F097016A
:1037700042E160E0C8010E941D0FF092F202E09267
:10378000F102F801ED56FF4FE080F1808091F302E5
:103790009091F402E816F90651F0970142E161E0D8
:1037A000C8010E941D0FF092F402E092F302F801AA
:1037B000EB52FF4F8081982F9D7F913019F0E12CC3
:1037C000F12C03C092E0E92EF12C8250823010F4EB
:1037D0006894E0F8F801E652FF4F8081982F9D7FB2
:1037E000913011F46894E3F88250823010F46894B8
:1037F000E2F8F801E152FF4F8081813091F0823090
:1038000099F0833099F48091F0028F5F833018F43F
:103810008093F00202C01092F0028091F002823098
:1038200018F46894E5F802C06894E6F8F801EC51E1
:10383000FF4F8081882311F06894E4F88091F502AD
:103840009091F602E816F90651F0970142E162E024
:10385000C8010E941D0FF092F602E092F502E0917D
:10386000E402F091E502E851FF4F80818111EACB3B
:103870002090E6023090E7023D8A2C8AD1015696CC
:103880008C9190E0FC01EA50FF4F0491FC01E25161
:10389000FF4F14910E94D92CA02F000FBB0BA11B2E
:1038A000B10917FDB395E82FEA9FC001EB9F900D7A
:1038B0001124E12FE90FAC89BD8957968C9188239B
:1038C00009F46EC08091EE029091EF022FEF289FD5
:1038D000A001299F500D1124252F332727FD3A954C
:1038E000B9E1EB02A0011124852F992787FD9A9554
:1038F000A901480F591F5093EF024093EE02209107
:10390000EC023091ED0266EF629FC001639F900D63
:103910001124292F332727FD3A95FBE4EF02C0013C
:103920001124892F990F990B820F931F9093ED0209
:103930008093EC02A091EA02B091EB0221E92A9F68
:10394000B0012B9F700D1124A72FBB27A7FDBA959F
:103950000DE011E06E2F60039001619F300D112486
:10396000232F330F330B2A0F3B1F3093EB0220938F
:10397000EA02840F951F280F391F8FE2E802F00139
:103980001124EF2FFF0FFF0BE20FF31FE038F105BB
:1039900034F4E1389FEFF9071CF4E1E801C0EFE7E8
:1039A000AC89BD8958968C91A82FB0E0A358BE4F22
:1039B000EC93EC89FD89808D8F5F808F80917C01F5
:1039C000813318F010927C0105C080917C018F5FDB
:1039D00080937C01262C312C388A2F860C891D89F6
:1039E0000F5A1F4FD80114968D919C911597820DF7
:1039F000931D15969C938E93149711962D913C913F
:103A00001297D80114966D917C91159762177307E0
:103A100030F0621B730BF80175836483F2CFCB0126
:103A2000A0E0B0E0BC01CD0146E0660F771F881F23
:103A3000991F4A95D1F740E050E00E94552DF801BA
:103A40008381281768F42B8B0E94D92CFEEF8F9F5F
:103A5000C001112481E8890FD80116968C932B8917
:103A6000F80123832C893D892C5D3F4F3F832E83B2
:103A7000662DC9010E944C0D4C895D894E5C5F4FDB
:103A80005B874A87662DCA010E944C0DD8011396A8
:103A9000EC91F0E0E250FF4FAC89BD899D962C91EE
:103AA0009D9751964C91519750E05296EC905297B9
:103AB0009E968C9181112195022E000C330B6E2D58
:103AC00070E0B2E0FB2E89E0D82E96EFC92E9491DB
:103AD000EE20C1F0AC89BD8953968C91811104C050
:103AE000A92F990FBB0B01C0D901A69FC001A79FA9
:103AF000900DB69F900D1124892F990F990B840F6B
:103B0000951F01C0CA01AC89BD89873F91051CF092
:103B10005496CC9208C0893091051CF45496DC92DE
:103B200002C054968C93B1E0FB1619F0FF24F39475
:103B3000CECFAC89BD89A45BBF4F8C91811103C0EE
:103B4000F801E68001C0E490EC89FD89E35BFF4F5A
:103B50008081811103C08E819F8102C08A859B85EF
:103B60000E94CD0DEC89FD89E154FF4F30810C8915
:103B70001D890B5B1F4FD8019C9113962C911397B5
:103B80004E2D4203F001112454E0F595E7955A9526
:103B9000E1F7E90FF11D14962C911497582F520359
:103BA000C001112463E0959587956A95E1F78E0F22
:103BB0009F1F332311F016963C93D80115966C91F4
:103BC000159716964C9150E040545109649F90010E
:103BD000659F300D112443E0359527954A95E1F70F
:103BE000280F391F2F3F310509F024F437FD05C098
:103BF000F22E04C0FF24FA9401C0F12CF801828156
:103C0000823069F0833009F441C0813009F054C03A
:103C10002F2D30E0359527952187218149C02F2D03
:103C200030E0A5E7B0E00E94772D2FEF30E040E0D4
:103C300050E00E94232DDA01C9010596A11DB11D96
:103C4000F8018187E180AF2DB0E02EEE3FEF4FEF1E
:103C50005FEF0E94422D2FEF30E040E050E00E94E5
:103C6000232D2951310941095109AE2DB0E00E949F
:103C7000422D2FEF30E040E050E00E94232DDA018A
:103C8000C9018D96A11DB11D9C0118C02F2D30E0DA
:103C9000ACEFB5E10E94772D29E03DE340E050E034
:103CA0000E94552DD80119962C93199711962C9195
:103CB00030E03595279502C020E030E0F8014185DD
:103CC0004203C001439F900D1124880F892F881F44
:103CD000990B82872C883D88FCE52F0E311C8C883F
:103CE0009D8894012A573F4F3A832983A401465A5D
:103CF0005F4F5C834B83840199868886412C512CCD
:103D0000C4018F5A9F4F9D878C87D401A354BF4F06
:103D1000BA8BA98B77247394F10180819181F4018E
:103D2000E85AFF4F208131818217930779F1399644
:103D3000C080D180C114D10429F1C4018D599F4F95
:103D4000FC0160817181AF85B889A60FB71FB1836F
:103D5000A083CA16DB06B0F0EB81FC81E080F18025
:103D6000A90160E070E09A01AB012E193F094109F9
:103D700051090E94422D960140E050E00E94232DFF
:103D80002E0D3F1DD1012D933C9309C0EB81FC8189
:103D9000208131812817390711F091838083D10167
:103DA0008D919C917801B4E8EB0EF11CF7019183A1
:103DB000808371968081AC85BD851396EC91F0E08F
:103DC000811103C0E250FF4F02C0E25CFE4F34910C
:103DD000F801EA56FF4F8081811105C0EC85FD8511
:103DE000F681FE8707C08E819F813B8B0E94CD0D9F
:103DF0008E873B89A989BA89BC91BD83F701A080D0
:103E0000B1806501E12CF12CF801E857FF4F80816A
:103E1000882381F13A968081F5E2F49D7001F59D49
:103E2000F00C11244C895D89E40EF51EE80EF11C9E
:103E3000F701E258FF4FD801A657BF4F4D915D9152
:103E40006D917C912081832F0E942615282F30E0D0
:103E50002F5F3F4FD5010E94772DF701EF57FF4F9E
:103E60006B017C01008004C0F694E794D794C7945A
:103E70000A94D2F7F801E757FF4F8081882381F138
:103E80003A96808155E2549D5001559DB00C112405
:103E9000AC89BD89AA0EBB1EA80EB11CF501E25863
:103EA000FF4FD801A257BF4F4D915D916D917C910D
:103EB00020818E850E942615A82FB0E01196A701BB
:103EC00096010E94422DF501EF57FF4F6B017C01D7
:103ED000008004C0F694E794D794C7940A94D2F76C
:103EE000BD81BB23E9F1F801EE56FF4F808190E0E0
:103EF000E5E2E49D9001E59D300D1124AC88BD887C
:103F0000A20EB31EA80EB91EF501E258FF4F880F8E
:103F1000991F880F991F820F931F2C893D89820F4B
:103F2000931FDC01AE58BF4F4D915D916D917C9117
:103F300020818D810E942615A82FB0E01196A7013F
:103F400096010E94422DF501EF57FF4F6B017C0156
:103F5000008004C0F694E794D794C7940A94D2F7EB
:103F6000F801EC56FF4FA081A03871F0B0E0A70136
:103F700096010E94422D6B017C01E7E0F694E794E4
:103F8000D794C794EA95D1F7C11430E4D306E1047D
:103F9000F10438F0EFEFFFE3A981BA81ED93FC93D0
:103FA00004C0A981BA81CD92DC92E981FA81A08016
:103FB000B180C501A0E0B0E05C016D0176E0AA0C23
:103FC000BB1CCC1CDD1C7A95D1F7E885F985848D66
:103FD000958DA68DB78DA816B906CA06DB0609F41D
:103FE00087C0A48EB58EC68ED78EE12CF12CED82C3
:103FF00060E074E284EF90E00E2C04C0660F771F3F
:10400000881F991F0A94D2F7A60195010E94552D89
:10401000C9012130B5E03B0758F061E070E001C014
:10402000660FEA94EAF7F201EC5FFE4F608307C087
:10403000EFEFEE1AFE0AF8E0EF16F104C1F64114B4
:10404000510441F40197909303018093020170920F
:104050007D024EC0E0E02F3F310511F008F042C074
:104060008E2F90E0FC013197E830F10520F4EC5CF4
:10407000FF4F0C942828709201012EC0709201010C
:1040800020C070920101F201EC5FFE4F808190E050
:10409000959587959595879580831EC042E04093BE
:1040A00001011AC052E0509301010BC062E060931D
:1040B0000101E9CF83E0809301010EC093E090936A
:1040C0000101F201EC5FFE4F808190E095958795AC
:1040D000E3CFA4E0A093010121502093000170924E
:1040E0007E0206C036952795EF5FE93009F0B3CF21
:1040F000BDE02B0E311CEDE08E0E911C288539851C
:104100002C5F3F4F3987288749815A814B5D5F4F2C
:104110005A8349830B5D1F4F8B819C810D969C8335
:104120008B834A94452821F044244394512CF4CDA8
:10413000EC89FD89EC5BFF4F8081811103C08A858A
:104140009B8502C08E819F810E94CD0DEC89FD89E7
:10415000E05CFF4F2381382F3203C001112434E08B
:10416000959587953A95E1F72181820F911D8038C9
:10417000910534F480384FEF94071CF480E801C0B7
:104180008FE780838091DF0286198093DF020C9491
:104190002218E091E602F091E702DF01A05BBF4F39
:1041A0008C9190E0959587958093DE029091DE0248
:1041B0008FE7891B8093070150978C918093DD02D4
:1041C00082858093DA0287858093D70286858093E3
:1041D000D50280898093DB0285898093D802848907
:1041E0008093D60284818093DC0285818093D902FA
:1041F0009091D40217968C91981751F08093D40225
:104200001092D1021092D0021092D3021092D202D8
:10421000DF01A25BBF4F8C918093CF02E15BFF4F28
:1042200080818093CE020C942D18E0E8D401EC93A9
:10423000A981BA818C9377C8A114B10409F035C95A
:10424000EE81FF816081D4016C93F70180819181BF
:10425000DC01ED91FC910084F185E02D0995F401DC
:104260006081C101062E02C0880F991F0A94E2F7EF
:10427000AB81BC818D939C93F2018081682B8FEF81
:1042800093E00E94112D11C9CF93DF93FC0163319C
:10429000D1F4413089F048F0423009F073C0048015
:1042A000F581E02DE152FF4F69C00480F581E02DDA
:1042B000E152FF4F108266C00480F581E02DE1528B
:1042C000FF4F82E05EC0A481B58153968C915397D5
:1042D000481724F081501D968C9307C047FF03C0F8
:1042E0001D961C9202C01D964C930480F581E02D12
:1042F000613119F480E090E404C0603171F480E031
:1043000098E0DF01AF5ABF4F11969C938E93AE5B3E
:10431000BF4F4F5F81E090E025C0623191F480E0B3
:1043200090E8DF01AF5ABF4F11969C938E93AE5B1E
:10433000BF4F81E090E002C0880F991F4A95E2F7D5
:1043400017C0DF01AF5ABF4F81E090E0EC0102C01F
:10435000CC0FDD1F6A95E2F71196DC93CE93AE5B2E
:10436000BF4F4F5F02C0880F991F4A95E2F7019730
:104370008D939C93EB52FF4F222311F081E001C0FB
:1043800083E08083DF91CF91089508958F929F926B
:10439000AF92BF92CF92DF92EF92FF920F931F9353
:1043A000CF93DF9385E691E09093E1028093E00262
:1043B00089E791E09093E3028093E2028091E30326
:1043C0008111B6C01092F9021092FB021092FA020B
:1043D0001092FD021092FC0281E08093FE0290E1B7
:1043E0009093FF0280930003109201031092020346
:1043F0001092030310920403109206031092050317
:1044000010920803109207038093090390930A0304
:1044100080930B0310920C0310920D0310920E0365
:10442000E0E1F3E0DF0111971C9210821282118209
:104430001382359623E0EE32F207A1F7EFE2F3E0C4
:1044400080E090E044E620ED37E0DF0112971C9217
:1044500011961C92108212821182DC01A950BD4F6C
:10446000DB961C92DB97DC964C933683258309966A
:1044700039968B31910549F7109249031092480300
:1044800080E1EAE4F3E0DF01C82F1D92CA95E9F765
:10449000EAE5F3E0DF01C82F1D92CA95E9F790E243
:1044A000EAE6F3E0DF01C92F1D92CA95E9F7109201
:1044B0008B0310928A03ECE8F3E0DF01C82F1D9212
:1044C000CA95E9F7ECE9F3E0DF011D928A95E9F777
:1044D000ECEAF3E0EF0119929A95E9F720E030E079
:1044E000C90189509D4FFC01EB52FF4F108231965C
:1044F00010823196108231961082319610822B5F95
:104500003F4F2F30310561F71092DB031092DC032F
:1045100081E18093DD031092DE031092DF0310929D
:10452000E0031092E1031092E20381E08093E30341
:1045300087EF92E09093E5028093E4028091AB04D0
:1045400081112EC18DE391E09093EC038093EB03F6
:104550008BE591E09093EE038093ED031092EF03CF
:1045600027E02093F0031092F5038FE78093F60382
:104570001092F7031092F8038093F9032093FA0343
:104580001092FB038093FC031092FD031092FE0334
:104590008093FF0320930004109201041092020400
:1045A000109203041092040488E0E5E1F1E0A7E032
:1045B000B4E001900D928A95E1F78FEF9FE7909319
:1045C000100480930F04909312048093110490932D
:1045D00014048093130444E751E05093160440936D
:1045E00015041092180410921704109219041092D6
:1045F0001A0410921B0410921C0490931E048093C2
:104600001D049093200480931F04909322048093B0
:104610002104509324044093230410922604109202
:104620002504109227041092280410922904109255
:104630002A0410922B0410922C0420932D0480E164
:1046400080932E0410922F048FEF809330041092E9
:1046500032041092330410923404109235041092F4
:1046600036041092370410923804109239041092D4
:104670003A0410923B0480E580933C0484E690E089
:1046800090933E0480933D0410923F0410924104A5
:10469000109240041092420488EB91E090934404FD
:1046A0008093430490934604809345049093480478
:1046B000809347041092490410924B0410924A04CC
:1046C00010924D0410924C0410924F0410924E041C
:1046D0009093510480935004909353048093520418
:1046E00090935504809354041092560410925804E9
:1046F0001092570410925A041092590410925C04BC
:1047000010925B04C4E7D4E020E030E04CE0F42EEB
:1047100040E800E410E277E066E055E0DE015797FC
:10472000EDE1F1E08F2D01900D928A95E1F7FE0108
:104730003B97408331960083319610833196708386
:104740003196608331965083359610821882198293
:104750001A821B821C821D821E821F821886C9013A
:1047600085519C4FFC01EE56FF4F1082319610820E
:104770003196408331961082319610822B5D3F4FE7
:10478000A5962A34310551F61092A7041092A80478
:104790008FE78093A9041092AA0481E08093AB0470
:1047A0008BEE93E09093E7028093E60284E080939F
:1047B000E8028CE38093E90282EE92E09093060493
:1047C0008093050485E190E00E945B2BEC018AE078
:1047D000E9E2F1E0DE0101900D928A95E1F780E8CF
:1047E0008A871B861C8686E0E3E3F1E0DE011D96E6
:1047F00001900D928A95E1F78DEE93E0009719F400
:104800001C8A1B8A02C09C8B8B8BD093F403C093B1
:10481000F3038EE890E00E945B2BFC018DE7808320
:1048200011821482158216821782108612861186D2
:10483000148613861586DF011E9680E8ED01199215
:104840008A95E9F78BEE93E093838283F093F203EA
:10485000E093F10380EE92E09093F8028093F702E8
:10486000F8942A9A229A8CB580618CBD8CB58064AC
:104870008CBD239A259A8DB581608DBD8CB58D7FB9
:104880008CBD8CB58E7F8CBD8CB58F7D8CBD8CB571
:10489000877F8CBD8CB58B7F8CBDC0E0D0E01AE0EB
:1048A00008E06C2F2A98CE01880F991F80648EBD76
:1048B0000DB407FEFDCF1EBD0DB407FEFDCF0EBD2E
:1048C0000DB407FEFDCF2A9A20E030E040E087EFEC
:1048D00092E00E941D0F2196C330D10511F7E0E14F
:1048E000F3E080E090E037E880937C0020917C004A
:1048F000206420937C0020917C00206220937C0027
:1049000030937A0020917A00206420937A002091DD
:104910007A0026FDFCCF20917900DC01AA57BD4F1B
:104920002C93DF0111971C92208312821182238322
:104930000196359686309105B9F610927C008091EB
:104940007C00806480937C0080917C0080628093F6
:104950007C008FE880937A0080917A008064809355
:104960007A0020E030E0C12CD12C7601C394C0E065
:10497000D0E0FE01E20FF31FE656FE4F84914AB1EC
:104980004601570104C0880C991CAA1CBB1C8A95BF
:10499000D2F7D501C40180959095A095B09550E0CF
:1049A00060E070E084239523A623B7238AB9E491BD
:1049B0004BB1D701C60104C0880F991FAA1FBB1FA6
:1049C000EA95D2F7842B8BB9219719F0C1E0D0E09A
:1049D000D0CF2E5F3F4F2430310549F620982898DC
:1049E0002198299856985E98539A5B9883B1809540
:1049F000982F91709093830290932D0310922E0321
:104A000090932F03109231031092300310923203CF
:104A100024E62093330320ED37E0309335032093D1
:104A20003403913011F49093DF0386958170809365
:104A300084028093360310923703809338031092D8
:104A40003A031092390310923B0394E690933C038F
:104A500020ED37E030933E0320933D0389B18095EC
:104A600086FB882780F98093850280933F0310920C
:104A7000400380934103109243031092420310922B
:104A8000440390934503309347032093460380915A
:104A90006B00816080936B0080916B0082608093DB
:104AA0006B00D89A80916800816080936800809143
:104AB0006D00846080936D0080916D0080618093B3
:104AC0006D0080916D00806280936D0080916D001B
:104AD000806480936D0080916D00806880936D008C
:104AE000DA9A8091680084608093680078948FEFF0
:104AF00093E00E94F92CC82FC078C093E0038FEF99
:104B000093E00E94F92C8F708093E1039091DF0372
:104B1000992311F191E090930003C03809F093E0DC
:104B20009093CC031092D1031092D60321E030E091
:104B3000082E02C0220F331F0A94E2F73093490374
:104B4000209348039091FF02891724F0915090938D
:104B5000F90202C08093F902DF91CF911F910F916A
:104B6000FF90EF90DF90CF90BF90AF909F908F908D
:104B7000089502970C944421623039F128F4662399
:104B800061F06130B1F00895643009F445C008F473
:104B90003FC0653009F444C0089550E055954795ED
:104BA000EAEFF4E1E41BF50BE491DC01AC56BF4FF6
:104BB0000AC0E42FF0E0F595E795E650FB4EE4914E
:104BC000DC01A754BF4FEC930895E42FF0E0F59576
:104BD000E795E650FC4E6491FC01EF5AFF4F60836D
:104BE00070E080E49FE10E9414289B01728361833E
:104BF000A381B0E00E94772DDC01CB0136E0B695B1
:104C0000A795979587953A95D1F7958384830895CD
:104C1000FC01EB5BFF4F07C0FC01EA5BFF4F03C0E9
:104C2000FC01E05BFF4F4083089502970C94BC2584
:104C3000EF92FF920F931F93CF93DF93EC01062F18
:104C4000142F862F90E08431910508F0F0C0FC010C
:104C5000E45CFF4F0C9428287E0132E7E30EF11C40
:104C600009C07E01B2E7EB0EF11C2CC07E01F7E912
:104C7000EF0EF11CD70156961C93612F70E080E077
:104C800090E00E947629F70120A134E0239FE00DF7
:104C9000F11D112420813181428153810E94A12A7A
:104CA00020E030E040E751E40E949B28D70158966D
:104CB0006D937D938D939C935B97B9C07E01B7E90B
:104CC000EB0EF11CF701178B612F70E080E090E094
:104CD0000E947629D70191962C91F701B4E02B9F81
:104CE000E00DF11D112420813181428153810E9408
:104CF000A12A20E030E040E751E40E949B28F70120
:104D0000648F758F868F978F92C0842F880F880F3E
:104D1000880F8158898B8BC0842F8295807F8A8BE6
:104D200086C0842F90E0959587958D838E8B7FC06C
:104D3000842F90E0959587958F8779C0842F90E098
:104D4000959587958D8B73C0FE01E85BFF4F6EC014
:104D5000FE01E75BFF4F6AC0E42FF0E0EE0FFF1F9C
:104D6000E652FC4E859194919BA78AA720C0E42F20
:104D7000F0E0EE0FFF1FE654FC4E8591949199A749
:104D800088A715C0E42FF0E0EE0FFF1FE656FC4E9B
:104D9000859194919FA38EA30AC0E42FF0E0EE0FBB
:104DA000FF1FE658FC4E859194919DA38CA381E052
:104DB00089AB3DC0E42FF0E0EE0FFF1FCF01865A14
:104DC0009C4E7C01FC0125913491CE01885A9F4F65
:104DD000DC0118963C932E9317970E94E214F7017A
:104DE00025913491CE018B599F4FFC013087278349
:104DF0000E94E2141CC0E42FF0E0EE0FFF1FE65209
:104E0000FC4E8591949199AF88AF0AC0E42FF0E0F1
:104E1000EE0FFF1FE658FC4E859194919BAB8AAB39
:104E200081E08FAF04C0FE01E95BFF4F1083898DE5
:104E3000081711F00331C1F4EA8CFB8C602F8885D0
:104E400099850E947315D701ED91FC910190F08135
:104E5000E02D282F412F602FC701DF91CF911F91A7
:104E60000F91FF90EF900994DF91CF911F910F91D7
:104E7000FF90EF90089502970C941826EF92FF92FE
:104E80000F931F93CF93DF93EC01062F142F862FE0
:104E900090E08331910508F0A1C0FC01E05BFF4F79
:104EA0000C942828FE01EE58FF4F08C07E0132E71F
:104EB000E30EF11C09C0FE01E956FF4F13A38EC09B
:104EC0007E01F7E9EF0EF11CF70114A3111102C0E6
:104ED00081E002C082E0F70181A3F701678970E0F9
:104EE00080E090E00E947629F70121A134E0239F21
:104EF000E00DF11D112420813181428153810E94F6
:104F0000A12A20E030E040E751E40E949B28F7010D
:104F1000648F758F868F978F61C04093CB045EC07E
:104F20004B8B5CC04C835AC04A8758C0488B56C0D4
:104F3000FE01E45BFF4F03C0FE01E35BFF4F108304
:104F40004DC0442309F44AC041E060E18885998559
:104F50000E948A1560E13FC0FE01E65BFF4F4423DB
:104F600019F08FE080833AC0108238C0FE01EC5BFC
:104F7000FF4FE5CF442391F141E061E188859985B8
:104F80000E948A1561E127C0442341F141E062E1BA
:104F9000888599850E948A1562E11DC041111EC055
:104FA00040E06BE0888599850E948A156BE013C00C
:104FB000411114C040E06EE0888599850E948A15F1
:104FC0006EE009C041110AC040E06FE08885998514
:104FD0000E948A156FE0CE010E94D013898D0813BC
:104FE00019C0EA8DFB8D0190F081E02DE080F18009
:104FF000602F888599850E94C115212F482F602F29
:105000008A8D9B8DF701DF91CF911F910F91FF90BA
:10501000EF900994DF91CF911F910F91FF90EF9046
:10502000089502970C943E27AA1BBB1B51E107C0B1
:10503000AA1FBB1FA617B70710F0A61BB70B881F28
:10504000991F5A95A9F780959095BC01CD010895B7
:10505000EE0FFF1F0590F491E02D09945058BB27E7
:10506000AA270E9446280C94F1290E94E32938F0CF
:105070000E94EA2920F039F49F3F19F426F40C9499
:10508000B9290EF4E095E7FB0C94B329E92F0E94AF
:10509000022A58F3BA17620773078407950720F0AE
:1050A00079F4A6F50C94242A0EF4E0950B2EBA2F71
:1050B000A02D0B01B90190010C01CA01A00111241E
:1050C000FF27591B99F0593F50F4503E68F11A16CA
:1050D000F040A22F232F342F4427585FF3CF46955B
:1050E00037952795A795F0405395C9F77EF41F167D
:1050F000BA0B620B730B840BBAF09150A1F0FF0F47
:10510000BB1F661F771F881FC2F70EC0BA0F621F32
:10511000731F841F48F4879577956795B795F79522
:105120009E3F08F0B0CF9395880F08F09927EE0FB7
:105130009795879508950E94AF280C94F1290E94B5
:10514000EA2958F00E94E32940F029F45F3F29F052
:105150000C94B32951110C94252A0C94B9290E945E
:10516000022A68F39923B1F3552391F3951B550B4C
:10517000BB27AA2762177307840738F09F5F5F4F2A
:10518000220F331F441FAA1FA9F335D00E2E3AF069
:10519000E0E832D091505040E695001CCAF72BD081
:1051A000FE2F29D0660F771F881FBB1F26173707D2
:1051B0004807AB07B0E809F0BB0B802DBF01FF2704
:1051C00093585F4F3AF09E3F510578F00C94B32905
:1051D0000C94252A5F3FE4F3983ED4F386957795A7
:1051E0006795B795F7959F5FC9F7880F911D9695BD
:1051F000879597F90895E1E0660F771F881FBB1F19
:10520000621773078407BA0720F0621B730B840BC5
:10521000BA0BEE1F88F7E095089529F416F00C9468
:10522000B3290C94242A0C94B9290E940A2AA8F3C1
:105230009638A0F707F80F92E8942BE33AEA48EB88
:105240005FE70E94B72A0F920F920F924DB75EB799
:105250000F920E946D2AE6ECF0E00E94BC294F916B
:105260005F91EF91FF91E595EE1FFF1F49F0FE570B
:10527000E0684427EE0F441FFA95E1F74195550B7E
:105280000E94372A0F9007FE0C942B2A08950E9443
:105290000A2A88F09F5798F0B92F9927B751B0F094
:1052A000E1F0660F771F881F991F1AF0BA95C9F7AA
:1052B00014C0B13091F00E94242AB1E008950C94FA
:1052C000242A672F782F8827B85F39F0B93FCCF3AD
:1052D000869577956795B395D9F73EF49095809527
:1052E000709561957F4F8F4F9F4F0895E89409C047
:1052F00097FB3EF490958095709561957F4F8F4F09
:105300009F4F9923A9F0F92F96E9BB279395F6951E
:10531000879577956795B795F111F8CFFAF4BB0F9C
:1053200011F460FF1BC06F5F7F4F8F4F9F4F16C000
:10533000882311F096E911C0772321F09EE8872F8A
:10534000762F05C0662371F096E8862F70E060E046
:105350002AF09A95660F771F881FDAF7880F9695BF
:10536000879597F9089597F99F6780E870E060E066
:1053700008959FEF80EC0895DF93CF931F930F93D1
:10538000FF92EF92DF927B018C01689406C0DA2EC7
:10539000EF010E94B42AFE01E894A5912591359170
:1053A00045915591A6F3EF010E944628FE01970111
:1053B000A801DA9469F7DF90EF90FF900F911F91A9
:1053C000CF91DF91089500240A9416161706180647
:1053D0000906089500240A941216130614060506F9
:1053E0000895092E0394000C11F4882352F0BB0F8A
:1053F00040F4BF2B11F460FF04C06F5F7F4F8F4FED
:105400009F4F089557FD9058440F551F59F05F3F27
:1054100071F04795880F97FB991F61F09F3F79F0D6
:1054200087950895121613061406551FF2CF469558
:10543000F1DF08C0161617061806991FF1CF8695DA
:105440007105610508940895E894BB2766277727BE
:10545000CB0197F908959B01AC0160E070E080E812
:105460009FE30C949B280C94B3290C944D2B0E9421
:105470000A2AD8F39923C9F3940F511DA3F391502D
:10548000504094F059F0882332F0660F771F881F40
:1054900091505040C1F79E3F51052CF7880F911D48
:1054A0009695879597F908955F3FACF0983E9CF0EC
:1054B000BB27869577956795B79508F4B160939566
:1054C000C1F7BB0F58F711F460FFE8CF6F5F7F4F54
:1054D0008F4F9F4FE3CF0C94252AFA01DC01AA0FCE
:1054E000BB1F9B01AC01BF5728F422273327442759
:1054F000507820C0B75190F4AB2F002446953795D3
:105500002795011CA395D2F3002071F0220F331FC1
:10551000441FB395DAF30ED00C942E286130710538
:10552000A0E88A07B94630F49B01AC0166277727CB
:1055300088279078309621F02083318342835383EB
:1055400008950E94B42A0C94F1290E94E32938F0AE
:105550000E94EA2920F0952311F00C94B3290C94B1
:10556000B92911240C94252A0E94022A70F3959FD0
:10557000C1F3950F50E0551F629FF001729FBB274A
:10558000F00DB11D639FAA27F00DB11DAA1F649FE6
:105590006627B00DA11D661F829F2227B00DA11D99
:1055A000621F739FB00DA11D621F839FA00D611D1F
:1055B000221F749F3327A00D611D231F849F600D40
:1055C000211D822F762F6A2F11249F5750409AF069
:1055D000F1F088234AF0EE0FFF1FBB1F661F771FF5
:1055E000881F91505040A9F79E3F510580F00C94C0
:1055F000B3290C94252A5F3FE4F3983ED4F38695B3
:1056000077956795B795F795E7959F5FC1F7FE2B5F
:10561000880F911D9695879597F908950E940A2AFB
:10562000E8F09E37E8F09639B8F49E3848F4672FD2
:10563000782F8827985FF9CF86957795679593950A
:105640009539D0F3B62FB1706B0F711D811D20F409
:1056500087957795679593950C94322B0C944D2BE9
:105660000C94252A882371F4772321F09850872BF6
:10567000762F07C0662311F499270DC09051862B11
:1056800070E060E02AF09A95660F771F881FDAF7BE
:10569000880F9695879597F908959F3F31F091501F
:1056A00020F4879577956795B795880F911D969506
:1056B000879597F90895CF93DF938230910510F481
:1056C00082E090E0E091D704F091D80420E030E04F
:1056D000C0E0D0E0309711F140815181481759075F
:1056E000C0F04817590761F482819381209719F01F
:1056F0009B838A832BC09093D8048093D70426C0C1
:105700002115310519F04217530718F49A01BE010B
:10571000DF01EF010280F381E02DDCCF211531059F
:1057200009F1281B390B2430310590F412968D9124
:105730009C9113976115710521F0FB01938382837E
:1057400004C09093D8048093D704FD01329644C0DE
:10575000FD01E20FF31F81939193225031092D93A4
:105760003C933AC02091D5043091D604232B41F4C8
:1057700020910D0130910E013093D6042093D50471
:1057800020910B0130910C012115310541F42DB709
:105790003EB740910F0150911001241B350BE09151
:1057A000D504F091D604E217F307A0F42E1B3F0BAB
:1057B0002817390778F0AC014E5F5F4F2417350783
:1057C00048F04E0F5F1F5093D6044093D504819349
:1057D000919302C0E0E0F0E0CF01DF91CF91089516
:1057E0000F931F93CF93DF93009709F48CC0FC01B4
:1057F0003297138212820091D7041091D8040115B8
:10580000110581F420813181820F931F2091D504ED
:105810003091D6042817390779F5F093D604E09330
:10582000D50471C0D80140E050E0AE17BF0750F476
:1058300012962D913C911397AD012115310509F177
:10584000D901F3CF9D01DA01338322836081718115
:10585000860F971F8217930769F4EC01288139811D
:10586000260F371F2E5F3F4F318320838A819B8114
:1058700093838283452B29F4F093D804E093D704D3
:1058800042C01396FC93EE931297ED014991599102
:105890009E01240F351FE217F30771F48081918177
:1058A000840F951F029611969C938E93828193810B
:1058B00013969C938E931297E0E0F0E0D801129635
:1058C0008D919C911397009719F0F8018C01F6CFF8
:1058D0008D919C9198012E5F3F4F820F931F2091D5
:1058E000D5043091D6042817390769F4309729F484
:1058F0001092D8041092D70402C01382128210931F
:10590000D6040093D504DF91CF911F910F91089594
:1059100081E090E0F8940C94862D8F929F92AF9244
:10592000BF92CF92DF92EF92FF92CF93DF93EC0181
:10593000688179818A819B81611571058105910555
:1059400021F464E279ED8BE597E02DE133EF41E05E
:1059500050E00E94232D49015A019B01AC01A7EAA6
:10596000B1E40E94422D6B017C01ACEEB4EFA501C5
:1059700094010E94502DDC01CB018C0D9D1DAE1DAC
:10598000BF1DB7FF03C00197A109B0488883998361
:10599000AA83BB839F77DF91CF91FF90EF90DF9039
:1059A000CF90BF90AF909F908F9008950E948D2CC4
:1059B000089581E191E00E948D2C0895A0E0B0E06F
:1059C0008093110190931201A0931301B0931401DD
:1059D0000895DC01CB01FC01F999FECF06C0F2BDB0
:1059E000E1BDF89A319600B40D9241505040B8F79D
:1059F0000895F999FECF92BD81BDF89A992780B597
:105A00000895DC01A40FB51F4150504048F0CB0170
:105A1000840F951F2E910E94122D41505040D0F7B7
:105A20000895262FF999FECF92BD81BDF89A01976E
:105A300000B4021639F01FBA20BD0FB6F894FA9AD6
:105A4000F99A0FBE0895052E97FB1EF400940E944C
:105A50003A2D57FD07D00E94552D07FC03D04EF478
:105A60000C943A2D50954095309521953F4F4F4FCE
:105A70005F4F089590958095709561957F4F8F4FFA
:105A80009F4F08950E94772DA59F900DB49F900D74
:105A9000A49F800D911D11240895B7FF0C94422DF1
:105AA0000E94422D821B930B0895A1E21A2EAA1B7D
:105AB000BB1BFD010DC0AA1FBB1FEE1FFF1FA217BE
:105AC000B307E407F50720F0A21BB30BE40BF50BBB
:105AD000661F771F881F991F1A9469F76095709544
