:100000000C94BF0A0C94E70A0C94E70A0C941B109A
:100010000C94E70A0C94850F0C94E70A0C94E70AF9
:100020000C94E70A0C94430C0C94E70A0C946415A6
:100030000C94E70A0C94E70A0C943F150C94E70A19
:100040000C94A6170C94E70A0C94590F0C94E70A29
:100050000C94E70A0C9437100C94E70A0C94E70A06
:100060000C94E70A0C94E70AC026C326D026D526AE
:10007000DA26DE26E226ED26F627FB2700282828AA
:100080004F2856285B28622868286E287228762810
:1000900081288C289728A428C528D028E128DD2885
:1000A00078297C2981298629B329B629B829BA2932
:1000B000BC29BE29C229C729D229DC29E029EA297D
:1000C000F429FE29082A07634236B79BD8A71A39B4
:1000D000685618AEBAAB558C1D3CB7CC5763BD6D96
:1000E000EDFD753EF6177231BF000000803F000144
:1000F00000020003000400050001FF02FF00FE01F2
:1001000001FE00FF02FF0100040507023084000128
:1001100001020203040405050607070809090A0B82
:100120000B0C0D0D0E0F0F101112121314141516C7
:10013000171718191A1B1B1C1D1E1F1F20212223F5
:10014000242525262728292A2B2C2D2E2F2F303108
:1001500032333435363738393A3B3D3E3F40414201
:100160004344454648494A4B4C4D4F5051525355D4
:100170005657595A5B5C5E5F606263646667696A82
:100180006B6D6E707173747677797A7C7D7F0B0DF1
:100190001113171D1F25292B2F353B3D4347494F71
:1001A00053596165676B6D717F83898B95979DA3AB
:1001B000A7ADB3B5BFC1C5C7D3DFE3E5E9EFF1FB39
:1001C000001522304153697F00000000000000004C
:1001D000000000000000000000000000000000001F
:1001E000000000000000000000000000000000000F
:1001F00000000000000000000000000000000000FF
:1002000000000000000000000000000000000000EE
:1002100000000000000000000000000000000000DE
:1002200000000000000000000000000000000000CE
:1002300000000000000000000000000000000000BE
:1002400000000000000000000000000000000000AE
:10025000000000000000000000000000000000009E
:10026000000000000000000000000000000000008E
:10027000000000000000000000000000000000007E
:10028000000000000000000000000000000000006E
:10029000000000000000000000000000000000005E
:1002A000000000000000000000000000000000004E
:1002B000000000000000000000000000000000003E
:1002C0000000000000000000151515151515151586
:1002D00015151514141414141414141414141414DB
:1002E00014141414131313131313131313131313DA
:1002F00013131313131312121212121212121212D8
:1003000012121212121212121111111111111111D5
:1003100011111111111111111111111010101010D2
:1003200010101010101010101010101010100F0FCF
:100330000F0F0F0F0F0F0F0F0F0F0F0F0F0F0F0FCD
:100340000F0F0E0E0E0E0E0E0E0E0E0E0E0E0E0ECB
:100350000E0E0E0E0E0E0D0D0D0D0D0D0D0D0D0DC7
:100360000D0D0D0D0D0D0D0D0D0D0D0C0C0C0C0CC2
:100370000C0C0C0C0C0C0C0C0C0C0C0C0C0C0C0CBD
:100380000B0B0B0B0B0B0B0B0B0B0B0B0B0B0B0BBD
:100390000B0B0B0B0B0B0B0A0A0A0A0A0A0A0A0AB6
:1003A0000A0A0A0A0A0A0A0A0A0A0A0A0A0A0909AF
:1003B00009090909090909090909090909090909AD
:1003C00009090909090808082222222222212121DB
:1003D0002121212121212121202020202020202015
:1003E000202020201F1F1F1F1F1F1F1F1F1F1F1F19
:1003F0001E1E1E1E1E1E1E1E1E1D1D1D1D1D1D1D24
:100400001D1D1D1D1D1C1C1C1C1C1C1C1C1C1C1C27
:100410001C1C1B1B1B1B1B1B1B1B1B1B1B1B1A1A2C
:100420001A1A1A1A1A1A1A1A191919191919191934
:100430001919191919181818181818181818181837
:10044000181817171717171717171717161616163E
:100450001616161616161616161615151515151542
:100460001515151515151514141414141414141445
:100470001414141414141313131313131313131346
:10048000121212121212121212121212121212114D
:10049000111111111111111111111111111110104E
:1004A00010101010101010101010101010100F0F4E
:1004B0000F0F0F0F0F0F0F0F0F0E0E0E0E0E0E0E53
:1004C0000E0E0E0E0E0E0E0E30303030302F2F2F3F
:1004D0002F2F2F2E2E2E2E2E2E2E2E2D2D2D2D2D3E
:1004E0002D2D2D2D2C2C2C2C2C2C2B2B2B2B2B2B4E
:1004F0002B2B2B2A2A2A2A2A2A2A2A2A292929295D
:10050000292928282828282828282827272727276E
:10051000272727272726262626262625252525257B
:100520002525252525242424242424242424232388
:100530002323232323222222222222222222222197
:100540002121212121212121212020202020201FA3
:100550001F1F1F1F1F1F1F1F1F1F1E1E1E1E1E1EB1
:100560001D1D1D1D1D1D1D1D1D1D1D1C1C1C1C1CC0
:100570001C1C1C1C1C1C1B1B1B1B1B1B1B1A1A1AC8
:100580001A1A1A1A1A1A1A1A1919191919191919D3
:1005900019191918181818181818171717171717DE
:1005A00017171717171716161616161616161616E5
:1005B00016161515151515151514141414141414F0
:1005C000141414141413131341414040404040408C
:1005D0003F3F3F3F3F3E3E3E3E3E3E3D3D3D3D3D3B
:1005E0003D3C3C3C3C3C3C3B3B3B3B3B3B3A3A3A56
:1005F0003A3A3A3939393939393838383838383770
:10060000373737373736363636363635353535358A
:1006100035353434343434343333333333333232A2
:1006200032323232323131313131313030303030BA
:10063000302F2F2F2F2F2F2F2E2E2E2E2E2E2E2DD2
:100640002D2D2D2D2D2C2C2C2C2C2C2C2B2B2B2AEA
:100650002A2A2A2A2A2A2929292929292928282807
:10066000282828282727272727272726262626261B
:10067000262625252525252525242424242424242F
:100680002323232323232323222222222222222143
:1006900021212121212121202020202020201F1F55
:1006A0001F1F1F1F1F1F1E1E1E1E1E1E1E1E1D1D66
:1006B0001D1D1D1D1D1C1C1C1C1C1C1C1C1B1B1B78
:1006C0001B1B1B1B1B1A1A1A5353525252525252C3
:1006D00051515150505050504F4F4F4E4E4E4E4E24
:1006E0004E4D4D4D4C4C4C4C4C4C4B4B4B4B4B4B4B
:1006F0004A4A4A4949494949494848484747474772
:100700004747464646454545454545444444434399
:1007100043434343434242424141414141414040BE
:10072000403F3F3F3F3F3F3F3E3E3E3D3D3D3D3DE5
:100730003D3C3C3C3C3B3B3B3B3B3B3A3A3A3A3A08
:100740003A3A393939383838383838383737373627
:100750003636363636363535353534343434343449
:10076000333333333232323232323231313130306C
:100770003030303030302F2F2F2E2E2E2E2E2E2E8A
:100780002D2D2D2D2C2C2C2C2C2C2C2B2B2B2B2AAB
:100790002A2A2A2A2A2A2A292929292929292828C4
:1007A00028282727272727272727262626262525DF
:1007B00025252525252424242423232323232323FB
:1007C00023222222222121216969686868676767DC
:1007D00067676766666565656464646363636262D0
:1007E000626262626161616060605F5F5F5E5E5E07
:1007F0005D5D5D5D5D5D5C5C5C5B5B5B5A5A5A593F
:100800005959585858585858575757565656555575
:1008100055555454545454545353535252525151A5
:1008200051505050504F4F4F4F4F4F4E4E4E4D4DD9
:100830004D4C4C4C4C4B4B4B4A4A4A4A4A4A4A490B
:10084000494948484847474747464646454545453C
:100850004545454444444343434342424241414168
:10086000404040404040403F3F3F3F3E3E3E3D3D98
:100870003D3D3C3C3C3C3C3C3C3B3B3B3B3A3A3AC0
:1008800039393939383838383737373737373736ED
:100890003636363535353534343433333333323216
:1008A00032323232323231313131303030302F2F3A
:1008B0002F2F2E2E2E2D2D2D2D2D2D2D2D2C2C2C64
:1008C0002C2B2B2B2B2A2A2A7F7F7E7E7E7D7D7DE3
:1008D0007C7C7C7B7B7A7A7A79797978787877777F
:1008E00077767676757575747474737373727272C5
:1008F0007171717070706F6F6F6E6E6E6D6D6D6C0B
:100900006C6C6B6B6B6A6A6A69696968686867674F
:10091000676766666665656564646463636362628F
:1009200062616161616060605F5F5F5E5E5E5D5DD0
:100930005D5C5C5C5C5B5B5B5A5A5A59595959580F
:10094000585857575756565656555555545454534C
:10095000535353525252515151515050504F4F4F87
:100960004E4E4E4E4D4D4D4C4C4C4C4B4B4B4A4AC3
:100970004A4A4949494948484847474747464646F9
:100980004545454544444444434343424242424131
:10099000414141404040403F3F3F3E3E3E3E3D3D65
:1009A0003D3D3C3C3C3C3B3B3B3B3A3A3A3A393997
:1009B00039393838383737373736363636353535CA
:1009C0003534343434333333000000000000000089
:1009D0000000000000000000000000000000000017
:1009E0000000000000000000000000000000000007
:1009F00000000000000000000000000000000000F7
:100A000000000000000000000000000000000000E6
:100A100000000000000000000000000000000000D6
:100A200000000000000000000000000000000000C6
:100A300000000000000000000000000000000000B6
:100A400000000000000000000000000000000000A6
:100A50000000000000000000000000000000000096
:100A60000000000000000000000000000000000086
:100A70000000000000000000000000000000000076
:100A80000000000000000000000000000000000066
:100A90000000000000000000000000000000000056
:100AA0000000000000000000000000000000000046
:100AB0000000000000000000000000000000000036
:100AC0000000000000000000EBEBEBECECECECECC9
:100AD000EDEDEDEDEEEEEEEEEEEFEFEFEFEFF0F031
:100AE000F0F0F0F1F1F1F1F2F2F2F2F2F3F3F3F3EC
:100AF000F3F4F4F4F4F4F5F5F5F5F5F6F6F6F6F6A8
:100B0000F7F7F7F7F7F8F8F8F8F8F8F9F9F9F9F965
:100B1000FAFAFAFAFAFBFBFBFBFBFBFCFCFCFCFC25
:100B2000FDFDFDFDFDFDFEFEFEFEFEFFFFFFFFFFE6
:100B3000FF000000000000010101010101020202AA
:100B40000202020303030303030404040404040570
:100B50000505050505060606060606060707070736
:100B60000707080808080808080909090909090AFF
:100B70000A0A0A0A0A0A0B0B0B0B0B0B0B0C0C0CC8
:100B80000C0C0C0C0D0D0D0D0D0D0D0E0E0E0E0E94
:100B90000E0E0F0F0F0F0F0F0F0F10101010101061
:100BA0001010111111111111111212121212121230
:100BB0001213131313131313131314141414141400
:100BC0001414151515151515DEDEDFDFDFE0E0E086
:100BD000E1E1E1E2E2E3E3E3E4E4E4E5E5E5E5E6DF
:100BE000E6E7E7E7E8E8E8E9E9E9EAEAEAEBEBEB78
:100BF000ECECECECEDEDEEEEEEEEEFEFEFF0F0F016
:100C0000F1F1F1F2F2F2F3F3F3F3F4F4F4F5F5F5B4
:100C1000F6F6F6F7F7F7F7F8F8F8F9F9F9FAFAFA55
:100C2000FAFBFBFBFBFCFCFDFDFDFDFEFEFEFEFFFB
:100C3000FFFFFF00000001010102020202030303A3
:100C4000030404040505050506060606070707074D
:100C500008080809090909090A0A0A0A0B0B0B0CFA
:100C60000C0C0C0D0D0D0D0D0E0E0E0E0F0F0F10AA
:100C7000101010101111111112121212121313135D
:100C80001414141414151515151516161616161712
:100C90001717181818181819191919191A1A1A1AC9
:100CA0001B1B1B1B1B1C1C1C1C1C1C1D1D1D1D1D84
:100CB0001E1E1E1E1F1F1F1F1F1F20202020202141
:100CC0002121212121222222D0D0D1D2D2D3D3D38B
:100CD000D4D5D5D5D6D6D7D7D8D8D9D9DADADBDB9B
:100CE000DCDCDCDDDEDEDEDFDFE0E0E1E1E2E2E312
:100CF000E3E4E4E4E5E6E6E6E7E7E8E8E9E9E9EA8B
:100D0000EAEBEBECECEDEDEDEEEEEFEFF0F0F1F108
:100D1000F1F2F2F3F3F4F4F4F5F5F5F6F7F7F7F88A
:100D2000F8F8F9F9FAFAFBFBFBFCFCFDFDFDFEFE11
:100D3000FEFFFF000000010202020303030404059A
:100D4000050506060607070808080909090A0A0B27
:100D50000B0B0C0C0C0D0D0D0E0E0E0F0F0F1010BB
:100D6000111111121213131313141414151516164E
:100D700016171717171818191919191A1A1A1B1BE9
:100D80001C1C1C1C1D1D1D1E1E1E1F1F1F20202085
:100D90002121212122222223232324242424252526
:100DA0002525262627272727282828282929292ACC
:100DB0002A2A2A2B2B2B2B2C2C2C2D2D2D2D2E2E75
:100DC0002E2E2F2F2F303030BFC0C1C1C2C3C3C49D
:100DD000C4C5C6C6C7C8C8C9CACACBCCCCCDCDCE7F
:100DE000CFCFD0D1D1D2D2D3D4D4D5D6D7D7D8D8CB
:100DF000D9DADADBDBDCDDDDDEDEDFE0E0E1E1E21B
:100E0000E3E3E4E4E5E6E6E7E7E8E8E9EAEBEBEC70
:100E1000ECEDEDEEEFEFF0F0F1F1F2F3F3F4F4F5C9
:100E2000F5F6F6F7F7F8F9F9FAFAFBFBFCFCFDFD2D
:100E3000FEFEFFFF0001020203030404050506068F
:100E40000707080809090A0A0B0B0C0C0D0D0E0EFA
:100E50000F0F10101111121212131314141515166E
:100E60001717181819191A1A1A1B1B1C1C1D1D1EDE
:100E70001E1F1F1F2020212122222223232424255C
:100E800025252626272728282829292A2A2B2B2CDE
:100E90002C2D2D2D2E2E2F2F2F303031313132325F
:100EA00033333334343535353636363737383838EA
:100EB0003939393A3A3A3B3B3C3C3C3D3D3D3E3E7C
:100EC0003E3F3F3F40404041ADAEAFB0B0B2B2B3A5
:100ED000B4B5B5B6B7B8B9B9BBBBBCBDBEBFBFC171
:100EE000C1C2C3C4C5C5C6C7C8C8C9CACBCCCCCD8E
:100EF000CECFD0D0D1D2D3D4D4D5D6D7D7D8D9DAB3
:100F0000DBDBDCDDDDDFDFE0E1E1E2E3E4E5E5E6DC
:100F1000E7E7E8E9EAEAEBECECEDEEEFF0F0F1F20E
:100F2000F2F3F4F4F5F6F7F8F8F9F9FAFBFBFCFD47
:100F3000FDFEFFFF00010203030405050607070885
:100F400008090A0A0B0C0C0D0E0E0F1010111212CC
:100F50001314141516161717181819191A1B1B1C19
:100F60001D1D1E1F1F20212121222323242525266C
:100F70002727272829292A2A2B2C2C2C2D2E2E2FC7
:100F80003030303132323334343435363637373826
:100F900038393A3A3A3B3B3C3C3D3D3E3F3F3F408F
:100FA00041414142434343444545454647474748FD
:100FB0004949494A4B4B4B4C4C4C4D4E4E4E4F5071
:100FC00050505151525252539798999A9B9D9E9EC0
:100FD0009FA1A2A3A4A5A6A7A8A9AAACACADAEB098
:100FE000B1B1B2B4B5B6B6B8B9BABBBCBDBEBFC07C
:100FF000C1C2C3C4C4C6C7C8C9C9CBCCCDCECED06C
:10100000D1D2D3D3D4D6D7D7D8D9DADCDCDDDEDF62
:10101000E0E1E1E3E4E5E6E6E7E8E9EBEBECEDEE61
:10102000EFEFF0F1F2F3F4F5F6F7F8F9F9FAFBFC6B
:10103000FDFEFEFF00010203040506070708090A7A
:101040000B0C0C0D0E0F1011111213141515161791
:1010500018191A1A1B1C1D1D1E1F1F2021222324B4
:1010600024252627282929292A2B2C2D2D2E2F30DF
:10107000313232323334353637373738393A3B3C10
:101080003C3C3D3E3F40404141424344454545464E
:10109000474849494A4A4B4C4C4D4E4F4F4F50518F
:1010A000525253545455555657585858595A5A5BDA
:1010B0005C5D5D5D5E5E5F6061616262626364652E
:1010C0006566676767686869818284858688898ABA
:1010D0008B8D8E8F919293949697989A9B9C9D9FBF
:1010E000A0A1A2A4A5A6A7A9AAABACAEAFB0B1B26D
:1010F000B4B5B6B7B8BABBBCBDBEC0C1C2C3C4C626
:10110000C7C8C9CACBCDCECFD0D1D2D4D5D6D7D8E7
:10111000D9DADBDDDEDFE0E1E2E3E4E6E7E8E9EAB5
:10112000EBECEDEEEFF0F2F3F4F5F6F7F8F9FAFB8D
:10113000FCFDFEFF0001030405060708090A0B0C6D
:101140000D0E0F101112131415161718191A1B1C57
:101150001D1E1F20212223232425262728292A2B50
:101160002C2D2E2F30313232333435363738393A50
:101170003B3C3C3D3E3F404142434344454647485B
:1011800049494A4B4C4D4E4F4F5051525354545570
:1011900056575858595A5B5C5C5D5E5F606061628F
:1011A0006363646566676768696A6A6B6C6D6D6EB8
:1011B0006F70707172727374757576777778797AEB
:1011C0007A7B7C7C7D7E7E7F00EBDED0BFAD97811D
:1011D000001522304153697F0004080C1014181CBC
:1011E0002023272B2F33373B3F3B37332F2B27230E
:1011F000201C1814100C080400FCF8F4F0ECE8E4CF
:10120000E0DDD9D5D1CDC9C5C1C5C9CDD1D5D9DDCF
:10121000E0E4E8ECF0F4F8FC00000000000000005E
:1012200000000000000000000000000000000000BE
:1012300000000000000000007F7F7F7F7F7F7F7FB6
:101240007F7F7F7F7F7F7F7F7F7F7F7F7F7F7F7FAE
:101250007F7F7F7F7F7F7F7F0FF02100230025002E
:10126000270029002C002E003100340037003A00FE
:101270003E004100450049004E00520057005C000E
:10128000620068006E0075007B0083008B00930095
:101290009C00A500AF00B900C400D000DC00E9004C
:1012A000F70006011501260137014A015D017201AF
:1012B00088019F01B801D201EE010B022A024B0204
:1012C0006E029302BA02E40210033F037003A40308
:1012D000DC03170455049704DD0427057505C805CC
:1012E00020067D06E0064907B8072D08A9082D0944
:1012F000B9094D0AEA0A900B400CFA0CC00D910E88
:101300006F0F5A1053115B1272139A14D4152017D1
:101310008018F519801B231DDE1EB420A622B524DB
:10132000E4263429A72B402E0031EA330037453A12
:10133000BC3D68414C456B49C84D68524F57805C75
:101340000062D467006E8A74797BD082978AD592C6
:10135000909BD0A49DAEFFB8FFC3000005000E0017
:101360001B002E004D007B00C3003201DD01E402B2
:101370007904E806A80A6F1054199819410EF2076B
:101380006E047A026301C800710041002700180052
:101390000F000B00080007000600CC0C77075B0469
:1013A0008B027D01DF0083004E002F001C00120025
:1013B0000C000800060005000400000000080011F1
:1013C00000190022002A0033003B0044004C005565
:1013D000005D0066006E0077FF7F87081C05100324
:1013E000D7011B01AA0067003E00260018000F006D
:1013F0000A000700050004000300020202020202C4
:1014000002020202020303030303030303030303B1
:101410000303040404040404040405050505050588
:101420000606060606070707070708080809090948
:101430000A0A0A0B0B0B0C0C0D0D0E0E0F0F1011E0
:1014400011121313141516161718191A1B1C1D1E2A
:10145000202122242526282A2B2D2F3133353739D8
:101460003B3E404345484B4E5154585B5F63676B6E
:101470006F74787D82888D93999F404041414142AD
:10148000424243434444444545454646474747480E
:10149000484849494A4A4A4B4B4C4C4D4D4D4E4E9B
:1014A0004F4F4F505051515252535353545455551E
:1014B00056565757585859595A5A5B5B5B5C5C5D96
:1014C0005D5E5F5F60606161626263636464656505
:1014D000666767686869696A6A6B6C6C6D6D6E6F68
:1014E0006F707071727273737475757677777879BF
:1014F000797A7B7B7C7D7D7E7F7F80818182838406
:1015000084858686878889898A8B8C8C8D8E8F8F3F
:101510009091929393949596979798999A9B9C9C67
:101520009D9E9FA0A1A2A2A3A4A5A6A7A8A9AAAB7D
:10153000ABACADAEAFB0B1B2B3B4B5B6B7B8B9BA83
:10154000BBBCBDBEBFC0C1C2C3C4C5C6C8C9CACB6F
:10155000CCCDCECFD0D2D3D4D5D6D7D8DADBDCDD44
:10156000DEE0E1E2E3E4E6E7E8E9EBECEDEFF0F101
:10157000F3F4F5F6F8F9FBFCFDFF7218711811246D
:101580001FBECFEFD8E0DEBFCDBF11E0A0E0B1E0DD
:10159000EAE8FFE502C005900D92AC37B107D9F734
:1015A00024E0ACE7B1E001C01D92A939B207E1F730
:1015B0001AE0CEEBDAE004C02197FE010E94802EF3
:1015C000CD3BD107C9F70E94051D0C94B82F0C9490
:1015D00000001F93CF93DF93EC01611108C0642FCB
:1015E0008E819F81DF91CF911F910C94D514613032
:1015F000A9F5EC81FD81E459FF4F8081813021F50F
:1016000069858FEF860F8E3748F5122F8E819F8167
:10161000DC01ED91FC910280F381E02D0995898533
:10162000112311F08F5F01C0815089878E819F81C6
:10163000DC01ED91FC910190F081E02D4FE769858F
:10164000DF91CF911F910994EE81FF81618D80859B
:101650009185DF91CF911F910C949A16DF91CF91D4
:101660001F910895EF920F936130A9F4DC01169653
:10167000ED91FC911797218D223169F4FC01408591
:101680008481958123E0E22E01E0242F68E08756D3
:101690009F4F0E9473170F91EF900895EF92FF9262
:1016A0000F931F93CF93DF93CDB7DEB767970FB636
:1016B000F894DEBF0FBECDBF8C01611117C0413061
:1016C00009F0CBC0DC011696ED91FC911797F18CD7
:1016D000008511856F2DC8014F8B0E9434164F89EC
:1016E00048276F2DC8010E944B16B7C0613009F022
:1016F0009EC0FC0186819781DC0159962C91048063
:10170000F581E02D223109F071C0413021F4E75616
:10171000FF4F4083A2C0DF01A756BF4F12961C9215
:101720001297E8E5F2E1E49111968C911197E82384
:10173000EC93F80184819581FC01E756FF4F23E08B
:101740002083BA9780819181D8011696ED91FC9102
:10175000179762E1813D9740D0F1808591850E9485
:101760008216D8011696ED91FC9117970084F185A9
:10177000E02DB6E18B9FB00111249F01CE010196AF
:101780008C014AE0480FD9015D919D01D8015D931C
:101790008D014A13F8CF7F01BDE0EB0EF11C9E01D5
:1017A000255F3F4FAF014D5E5F4FD7011D917D011A
:1017B000D9011D939D01E416F506B9F72285298B01
:1017C00023852A8B46E150E00E94AE2A46C08085E0
:1017D00091850E948216D8011696ED91FC9117977B
:1017E000682F808591850E94CD1637C0DC01ED9071
:1017F000FC90413069F4128AE756FF4F4083D701CD
:10180000ED91FC914FE7D80119966C91099525C08F
:10181000628BE756FF4F23E02083D7011296ED91AC
:10182000FC911397D80119966C91099516C06230F6
:10183000A1F4413091F4DC011696ED91FC911797DB
:10184000DF01A95BBF4F4C914F5F433008F040E090
:1018500063E1808591850E949A1667960FB6F89489
:10186000DEBF0FBECDBFDF91CF911F910F91FF90D3
:10187000EF900895DC011696ED91FC911797808505
:1018800091850C9421161F920F920FB60F9211247E
:101890000F931F932F933F934F935F936F937F9378
:1018A0008F939F93AF93BF93CF93DF93EF93FF9368
:1018B000809107038F5F83708093070381119EC01F
:1018C00080910503909106039C01205C3F4F283EC8
:1018D00013E0310728F430930603209305030BC06F
:1018E000885A9340909306038093050380916B047C
:1018F0008F5F80936B048091830480930303209116
:1019000084042093040390916604E82FF0E0911181
:101910000AC08091630490E0982F8827E80FF91F90
:10192000E853F64F1AC087FF0FC08091630490E020
:10193000982F8827E80FF91FE75BFE4FE491FF27F8
:10194000E1950CF4F0950DC08091630490E0982F20
:101950008827E80FF91FE853FE4FE4910E2E000C84
:10196000FF0BF0930203E093010330916704822F91
:1019700090E04091010350910203311112C0209177
:10198000640430E0322F2227FC01E20FF31FE853FA
:10199000F64FE491CA018E0F911DE7FD9A95FC0167
:1019A00028C0309162043217A0F420916404309171
:1019B0006204831B910930E0322F2227820F931F8C
:1019C000FC01E853FE4FE491FF27E1950CF4F095FC
:1019D0000EC02091640430E0322F2227820F931F23
:1019E000FC01E853FE4FE4910E2E000CFF0BE40FB8
:1019F000F51FF0930203E093010382C1813009F0E7
:101A000065C0809168042091010330910203811127
:101A100019C0E0910803F0E0E257FE4F8491409135
:101A2000FE0290E0840F911D8093FE02E091FE0281
:101A3000F0E0E75FFC4F8081F901E80FF11D87FDC1
:101A4000FA9529C04091620480910303881F88277A
:101A5000881F91E050910403451708F090E0891722
:101A600071F08091650490E0FC01E054FE4F849198
:101A7000482F552741950CF45095FA010AC08091E2
:101A8000650490E0FC01E054FE4F8491E82F880F3C
:101A9000FF0BE20FF31FF0930203E0930103809129
:101AA000010390910203959587958F3791053CF43A
:101AB00081385FEF95072CF481E89FEF02C08FE734
:101AC00090E090930203809301031AC1823009F0E1
:101AD000AFC0809160040091010310910203813036
:101AE00009F054C080915B0460915C0470915D04C6
:101AF000A0915B04F0915A0440915E0450915F0400
:101B0000E0915A04282F2003E001219FD00D1124D9
:101B10001A2F1603C001179F900D11249E01281B38
:101B2000390B1F2F1603C001179F900D1124280F8A
:101B3000391F1E2F1403C001159F900D1124281B5F
:101B4000390B220F232F221F330B260F371F309301
:101B50005D0420935C0470915B0460915B047203EC
:101B6000C001739F900D112464039001659F300D97
:101B70001124821B930B880F892F881F990B840FC8
:101B8000951F90935F0480935E04BAC080916004B7
:101B9000823009F048C040915C0450915D0460912E
:101BA0005A0420915E0430915F04F0915B04E0914F
:101BB0005B046403C001659F900D11246F2F6203C5
:101BC000D001639FB00D11248A1B9B0B6E2F600305
:101BD000D001619FB00D11248A0F9B1F880F892FA0
:101BE000881F990B481B590B50935D0440935C046C
:101BF00000915A0410915B040203B001039F700D21
:101C000011241403C001159F900D1124860F971FF6
:101C1000880F892F881F990B281B390B30935F047D
:101C200020935E046DC010935F0400935E0468C04F
:101C300020915E0430915F042F3731053CF4213848
:101C40008FEF38072CF421E83FEF02C02FE730E098
:101C500030935F0420935E0460916A041091070141
:101C60006203A001639F500D11246091FF027091E7
:101C700000031603C001179F900D1124840F951FB8
:101C8000880F892F881F990B909300038093FF0280
:101C9000281B390B40916904429FC001439F900D5E
:101CA00011248038904C54F040916904429FC00147
:101CB000439F900D112480389F43B4F440916904F0
:101CC000429FC001439F900D11248038904C7CF0BE
:101CD00040916904429FC001439F900D1124880FD9
:101CE000892F881F990B05C08FE790E002C081E81B
:101CF0009FEF909302038093010381588093B40077
:101D0000FF91EF91DF91CF91BF91AF919F918F9113
:101D10007F916F915F914F913F912F911F910F9103
:101D20000F900FBE0F901F901895E42FF0E0E85A27
:101D3000FD4EE4919E2F90958923440F440F01C0DE
:101D4000660F4A95EAF76E23862B0895CF92DF92AD
:101D5000EF92FF920F931F93FC018585882309F46E
:101D60006FC08485823071F130F4882309F45FC03C
:101D7000813041F065C0833009F441C0843009F4FA
:101D800043C05EC020813181A62FB0E00E94242B89
:101D900040855185AFEFBFE78D01041B150B012E68
:101DA000000C220B330B601771078207930728F092
:101DB00082E08487B187A08743C0640F751F718755
:101DC00060873EC022813381A62FB0E00E94242B81
:101DD00020853185A481B581A9014A1B5B0B6A016D
:101DE000550FEE08FF086C157D058E059F0528F040
:101DF00083E08487B187A0871CC0C9011DC084818E
:101E000095819187808715C026813781A62FB0E004
:101E10000E94242B408551858A01052E000C220B3F
:101E2000330B601771078207930728F01486118619
:101E30001086158605C0CA01861B970B918780877F
:101E40001F910F91FF90EF90DF90CF900895DC01EC
:101E50001C968C911C9719962C911997813099F4A6
:101E6000822F922F990F990B97FF03C0919581951F
:101E70009109EFE7F0E0E81BF109E25FFE4F949172
:101E8000EFE7E91B0DC0E22FF22FFF0FFF0BF7FF6B
:101E900003C0F195E195F109FF27E25FFE4FE49160
:101EA0001A968C91882319F08E2F819508958E2F84
:101EB00008951F920F920FB60F9211242F938F93B4
:101EC0009F93EF93FF938091C0009091C600809103
:101ED00059048F5F8F7320910601821304C084E040
:101EE0008093180408C0E0915904F0E0E75EFB4FCE
:101EF000908380935904FF91EF919F918F912F913F
:101F00000F900FBE0F901F9018951F920F920FB653
:101F10000F921124CF92DF92EF92FF920F931F93B3
:101F20002F933F934F935F936F937F938F939F93E1
:101F3000AF93BF93CF93DF93EF93FF93E9B0E09418
:101F40000E2D10E0C80126E0959587952A95E1F7BA
:101F5000817080931104CCEFD2E0AAEFB2E068E088
:101F600071E040E050E0FA01E45FFE4FF490FE20A3
:101F70008881F81609F43CC0FB0184913196949154
:101F8000F80102C0F595E7958A95E2F7E170FF2721
:101F9000EE0FFF1FEE0FFF1F680102C0D594C7941C
:101FA0009A95E2F7C6018170992723E0880F991F5F
:101FB0002A95E1F78E2B9F2B2C9130E035952795B4
:101FC00035952795822B932B8C93FC01E850FF4F7E
:101FD0008491FA01EE0FFF1FE55FFB4F20813181F5
:101FE0006901C81AD10887FDD394D182C082F882D2
:101FF000219611966E5F7F4F4130510519F041E0F7
:1020000050E0B1CFFF91EF91DF91CF91BF91AF91B0
:102010009F918F917F916F915F914F913F912F9100
:102020001F910F91FF90EF90DF90CF900F900FBE18
:102030000F901F9018951F920F920FB60F921124B8
:102040008F939F93EF93FF9383B18095982F917017
:10205000EFE0F4E09083869581708183FF91EF91AA
:102060009F918F910F900FBE0F901F9018951F9208
:102070000F920FB60F9211248F93EF93FF93E0917D
:10208000F902F0E080917900EE5EFB4F8083809151
:10209000F8028F5F8A3018F48093F80202C0109221
:1020A000F802E091F802F0E0E251FF4FE491E09392
:1020B000F9028091F90280937C0080917C00806419
:1020C00080937C0080917C00806280937C008FE80C
:1020D00080937A0080917A00806480937A00FF91E7
:1020E000EF918F910F900FBE0F901F9018952A9827
:1020F000660F60646EBD0DB407FEFDCF4EBD0DB41E
:1021000007FEFDCF2EBD0DB407FEFDCF3EBD0DB4C5
:1021100007FEFDCF2A9A0895FC01EC57FF4FDC0122
:10212000A755BF4F21E030E0A9010C9002C0440F39
:10213000551F0A94E2F751834083FC014585E4571B
:10214000FF4F042E02C0220F331F0A94E2F731839F
:102150002083442319F0413061F00895FC01E855D3
:10216000FF4F2081203859F4FC01E756FF4F81E0F2
:102170000AC0FC01E655FF4F20812034A9F3FC0181
:10218000E756FF4F83E080830895FC01E354FF4F3F
:102190006083089508950895089508950895089511
:1021A000FC0184819581FC01E756FF4F308123E0DB
:1021B000231B20833D976F5F81E090E002C0880F72
:1021C000991F6A95E2F70197918380830895DC0156
:1021D0001696ED91FC9117970680F781E02D6F70B0
:1021E00061830895603128F4FC01808591850C9409
:1021F000CD1608950F931F93CF93DF93663209F4A2
:1022000014C1EC01673208F064C0693109F4EFC011
:10221000B0F5643109F4CBC0F8F4653009F4B0C00E
:1022200090F4613009F075C150E08A01E3E0159542
:102230000795EA95E1F7402F60E0888599850E942F
:102240009A16402FCAC0603109F4A9C0613109F063
:1022500060C140E06AE017C1663109F4B8C008F413
:10226000AEC0673109F4BBC0683109F052C150E01B
:1022700003E0559547950A95E1F766E088C061321D
:1022800009F4C3C0C0F46E3109F4B9C058F46A311E
:1022900009F03FC150E0B3E055954795BA95E1F795
:1022A00068E075C06F3109F4ADC0603209F031C12A
:1022B00040E068E0E8C0633209F4B1C008F4ACC0A3
:1022C000643209F4AFC0653209F023C140E063E035
:1022D000DAC06E3409F4D5C028F5683409F4B6C004
:1022E00070F4683209F4ACC008F4A7C0693209F48C
:1022F000AAC0673409F00DC1440F64E0F4C06A3429
:1023000009F4B4C008F4AAC06B3409F4B2C06D3447
:1023100009F0FFC050E073E0559547957A95E1F7D5
:1023200069E035C06B3509F4C9C098F4603509F42B
:10233000B5C008F4B0C0613509F4B8C0623509F021
:10234000E8C050E023E0559547952A95E1F760E114
:102350001EC06E3509F4C2C048F46C3509F4B6C02D
:102360006D3509F0D6C0440F60E0BDC06F3509F48B
:10237000B8C06B3709F0CDC00E811F81C0E0BBC073
:1023800050E073E0559547957A95E1F76FE08885C1
:102390009985DF91CF911F910F910C949A1650E07F
:1023A00063E0559547956A95E1F76AE0F0CF50E014
:1023B00033E0559547953A95E1F760E0E8CF50E076
:1023C00023E0559547952A95E1F761E0E0CF50E08D
:1023D00093E0559547959A95E1F762E0D8CF50E0A4
:1023E00083E0559547958A95E1F763E0D0CF50E0BB
:1023F00013E0559547951A95E1F767E0C8CF40E09F
:1024000066E041C040E067E03EC0842F6BE20E947E
:10241000602E482F63E1BBCF40E060E034C040E075
:1024200061E031C040E062E02EC040E064E0DC01E9
:1024300018968D919C91199728C040E065E023C0C3
:1024400040E06CE020C040E06DE01DC050E0A3E043
:1024500055954795AA95E1F76BE099CF50E0F3E0E9
:1024600055954795FA95E1F76EE091CF440F63E0FB
:102470003AC050E0E3E055954795EA95E1F76DE005
:1024800086CF40E069E088859985DF91CF911F91E3
:102490000F910C944B16440F62E025C050E063E0AE
:1024A000559547956A95E1F76CE071CF50E033E0C0
:1024B000559547953A95E1F761E169CF50E093E092
:1024C000559547959A95E1F764E061CF50E083E038
:1024D000559547958A95E1F765E059CF440F61E03E
:1024E00002C0440F65E088859985DF91CF911F91E7
:1024F0000F910C942116F80182819381DC01ED91FA
:10250000FC910280F381E02D6C2F0995CF5FC038DC
:1025100091F7DF91CF911F910F9108950F931F9322
:10252000CF93DF93EC01AE81BF811D968C911D97F7
:10253000FE01E454FF4F8083AE0142545F4FFA0125
:102540008081681311C08FE780839D01225F3F4F18
:1025500080E0F90191919F01992319F0FA0180839C
:1025600003C08F5F8038A9F78E0101541F4FF80117
:10257000808168130FC010829D0122573F4F8FE763
:10258000F90192919F01992319F0F801808302C00B
:102590008150B1F71D968C9181110BC094E098ABDE
:1025A00081E089AB9EAF8FAFDF91CF911F910F91EB
:1025B0000895DA01EC91F0E0EE0FFF1FE65AFD4EB0
:1025C00065917491CE01885A9F4F0E94D215D8010F
:1025D000EC91F0E0EE0FFF1FE65AFD4E659174910D
:1025E000CE018B599F4FDF91CF911F910F910C948A
:1025F000D215EF92FF920F931F93CF938C01C62FAA
:10260000DC011696ED91FC9117978585F801E4544D
:10261000FF4F808332968081681708F460837801C9
:10262000BFEBEB0EF11CD7018C918C1708F4CC9307
:102630008081C8130DC0EC2FF0E0EE0FFF1FE65AAB
:10264000FD4E65917491C801885A9F4F0E94D21522
:10265000F7018081C8130DC0EC2FF0E0EE0FFF1FD3
:10266000E65AFD4E65917491C8018B599F4F0E94A7
:10267000D21581E0D801D0968C93D097D1968C93C7
:10268000D1979F968C919F97882321F09D961C92BD
:102690001E929C9781E0F80186AF87AF85AD8823B5
:1026A00011F013AE12AEF801EF5AFF4F15821482EB
:1026B000CF911F910F91FF90EF900895DF92EF92CD
:1026C000FF920F931F93CF93DF937C01C62FDC0102
:1026D0001896DC90189714960D911C9115970D552E
:1026E0001F4FD1E0F801D183138241E06D2D82812B
:1026F0000E94950ED80112968C9340E06D2D0E9499
:10270000950EF8018283D083D7011696ED91FC9146
:1027100017970680F781E02DC83F40F1CC3F58F471
:10272000CA3FB0F4C83F09F038C18185928501964F
:102730009287818732C1CC3F09F02FC114828281F8
:102740009381DC01ED91FC910680F781E02D27C09B
:102750001286118614861386D48382819381DC01CC
:10276000ED91FC910480F581E02D19C0C03FA0F1EE
:1027700010928804C03FD9F4D58316828FEF8093DE
:102780000901809308018085882309F406C18281AC
:102790009381DC01ED91FC910084F185E02DDF91C6
:1027A000CF911F910F91FF90EF90DF900994C73F59
:1027B00009F0F3C08581882309F4EFC01582808574
:1027C000882309F4EAC082819381DC01ED91FC91B8
:1027D0000484F585E02DE3CFC7FF0AC0C0938804C9
:1027E000D093870410928604109285041582D5C078
:1027F0008581882371F1668181E0860F868381302F
:1028000019F4C0930901C9C0823019F4C0930801BA
:10281000C4C09091090180819813BFC090910801B4
:1028200087819813BAC08085882309F4B6C0828155
:102830009381DC01ED91FC9162500284F385E02DDF
:102840004C2FDF91CF911F910F91FF90EF90DF9070
:10285000099480918804882309F49FC0909187048B
:10286000992301F1C093860410928704DF01A257D7
:10287000BF4F9C91992309F490C09181906C89136A
:102880008CC082819381DC01ED91FC910488F589F3
:10289000E02D6C2FDF91CF911F910F91FF90EF9062
:1028A000DF900994C09385049181292F20698213B8
:1028B0001BC0CC23C9F060918604DF01A60FB11DB7
:1028C0001E968C911E97811161C01E96DC938585A2
:1028D0008F5F858782819381DC01ED91FC9101906E
:1028E000F081E02D4C2F30C0392F3068831721F054
:1028F00082131BC0C11119C060918604DF01A60FAD
:10290000B11D1E968C911E97882309F43FC01E9618
:102910001C9285858150858782819381DC01ED91B0
:10292000FC910280F381E02D30C0292F206B8213AF
:102930000DC082819381DC01ED91FC910088F189C9
:10294000E02D4C2F60918604099520C0906E89136C
:102950001DC082819381DC01ED91FC91C11105C004
:102960000288F389E02D61E810C0CF3729F402888E
:10297000F389E02D6FE709C06C2F70E06054710996
:10298000660F771F0288F389E02D0995109286045F
:102990001092850481E080938704DF91CF911F918D
:1029A0000F91FF90EF90DF900895AF92BF92CF927A
:1029B000DF92FF920F931F93CF93DF931F92CDB7B8
:1029C000DEB75C016E3051F4DC011896ED91FC919C
:1029D0001997838586FF50C081E14AC06B30C1F5ED
:1029E000D5011896ED91FC911997838583FF44C01A
:1029F00080E1F501818FD5015A96ED91FC915B97AD
:102A00000190F081E02DC080D1805996FC905997BB
:102A100018960D911C9119976F2DC8010E943416BC
:102A2000282F6F2DC80129830E948216482F2981E3
:102A3000F501618D828D938DF6010F90DF91CF911D
:102A40001F910F91FF90DF90CF90BF90AF900994AE
:102A50006F3091F4D5011896ED91FC91199783850B
:102A600090E0880F892F881F990B892B29F082E12C
:102A7000D50159968C93BFCFF501618FBCCF1F92C2
:102A80000F920FB60F9211248F939F9380910A0497
:102A9000882361F08091010185BD809105018093BB
:102AA0008A048091000187BD10920A0490918404E9
:102AB00080918A04890F809384049F918F910F9055
:102AC0000FBE0F901F9018951F920F920FB60F9286
:102AD00011242F938F939F9380910904882371F081
:102AE0008091020190910301909389008093880066
:102AF00080910401809389041092090490918304C9
:102B00002091830480918904820F809383048091B3
:102B10008B04882331F080918304891710F410927C
:102B200084049F918F912F910F900FBE0F901F9053
:102B300018950E94B32FFC0180819181009711F0BC
:102B40000C941B2F0895CF93DF93EC01AF81B885D0
:102B5000109719F41A86198622C08E818823E9F00D
:102B6000488159818A819B81EC81FD818417950779
:102B700038F49A012E1B3F0B0E94242B9F0106C0A4
:102B80009F01241B350B0E94242B9A0140E050E04A
:102B90000E94022B3A87298702C0BA87A987DF9152
:102BA000CF910895FC01808191816817790771F0B8
:102BB000848195816817790749F0718360839383D5
:102BC000828314861386CF010C94A3150895CF92A7
:102BD000DF92EF92FF92CF936A017B01C22F682FA1
:102BE000880F770B880B990B0E947D2C20E030E03A
:102BF0004EEF52E40E94A02BA70196010E94A62D41
:102C00000E941A2C6B017C016C2F70E080E090E038
:102C10000E947B2C9B01AC01C701B6010E94A62D2E
:102C200020E030E040E85FE30E94332B0E94132E47
:102C30000E944C2C862FCF91FF90EF90DF90CF9089
:102C40000895FC01E60FF11D4587DC0153968D9137
:102C50009C915497009739F0DC01ED91FC91048030
:102C6000F581E02D09940895262F30E043E0359555
:102C700027954A95E1F7820F931FFC01828590E02A
:102C8000F8EF2F9F600D112402C0959587956A95E6
:102C9000E2F7817008950F931F93E62FF0E023E091
:102CA000F595E7952A95E1F7562F28EFE29F500D0D
:102CB0001124E80FF91F01E010E020E030E004C02B
:102CC000000F111F221F331F5A95D2F7442319F00A
:102CD0005285052B03C00095228502230287DC0163
:102CE00053968D919C915497009749F0DC01ED919A
:102CF000FC910280F381E02D1F910F9109941F91A7
:102D00000F910895DC01262F2170E22FF0E0E85AA0
:102D1000FD4E849170E075956795A60FB71F9C9145
:102D2000892390E0220F220F02C0959587952A955E
:102D3000E2F70895EF92FF920F931F93CF93DF93E3
:102D40007C01162F042FC62FD0E0D595C795462FAE
:102D50004170CE0DDF1D602F88810E94950E888303
:102D6000D70153968D919C915497009779F0DC018F
:102D7000ED91FC910190F081E02D402F612FDF91CA
:102D8000CF911F910F91FF90EF900994DF91CF9118
:102D90001F910F91FF90EF9008956F927F928F9205
:102DA0009F92AF92BF92CF92DF92EF92FF920F93DA
:102DB0001F93CF93DF93CDB7DEB766970FB6F89426
:102DC000DEBF0FBECDBF8C0186E1689FB00111242C
:102DD00046E150E0CE0101960E94962AFE0131960E
:102DE0005F01912C28E5C22E22E1D22E39E5E32E97
:102DF00032E1F32E3501F6014491892C880CF5015E
:102E000081915F014823682DC8010E949A16F7013D
:102E10004491F3018081482350E094E05595479513
:102E20009A95E1F761E0680DC8010E949A169394A3
:102E3000FAE09F12DFCF8AE0E82EF12CE1E0F0E02B
:102E4000EC0FFD1FEE0DFF1D66EF6E0D4081C801FA
:102E50000E9421168FEFE81AF80A90E1E916F104B2
:102E600069F7E12CF12C498950E00E2C02C05595F0
:102E700047950A94E2F741706E2DC8010E944B16E7
:102E8000EFEFEE1AFE0AF8E0EF16F10461F7E12C1D
:102E9000F12C4A8950E00E2C02C0559547950A94B2
:102EA000E2F7417068E06E0DC8010E944B168FEF8B
:102EB000E81AF80A98E0E916F10459F766960FB691
:102EC000F894DEBF0FBECDBFDF91CF911F910F9160
:102ED000FF90EF90DF90CF90BF90AF909F908F903A
:102EE0007F906F900895CF92DF92EF920F93CF93E0
:102EF000DF931F92CDB7DEB76C01842FF60162839A
:102F0000148241E0682F838129830E94950EF60187
:102F1000838340E02981622F0E94950EF60183830E
:102F200041E0602F81810E94950EF601818340E08F
:102F30006E2D0E94950EF601818300830F90DF9124
:102F4000CF910F91EF90DF90CF9008951F920F9245
:102F50000FB60F9211242F933F938F939F93AF93AC
:102F6000BF938091910490919204A0919304B091A9
:102F700094043091900423E0230F2D3720F4019620
:102F8000A11DB11D05C026E8230F0296A11DB11D8C
:102F9000209390048093910490939204A0939304BF
:102FA000B093940480918C0490918D04A0918E0430
:102FB000B0918F040196A11DB11D80938C04909354
:102FC0008D04A0938E04B0938F04BF91AF919F9115
:102FD0008F913F912F910F900FBE0F901F901895DA
:102FE000CF93DF93FC016331D1F4413089F048F095
:102FF000423009F070C00480F581E02DE256FF4FA9
:1030000066C00480F581E02DE256FF4F108263C058
:103010000480F581E02DE256FF4F82E05BC0A48181
:10302000B58153968C915397481724F081501D9683
:103030008C9307C047FF03C01D961C9202C01D96CB
:103040004C930480F581E02D613119F480E090E427
:1030500004C0603169F480E098E0DF01AC57BF4FF5
:1030600011969C938E9318964F5F81E090E023C059
:10307000623189F480E090E8DF01AC57BF4F1196D0
:103080009C938E93189681E090E002C0880F991F60
:103090004A95E2F716C0DF01AC57BF4F81E090E0E0
:1030A000EC0102C0CC0FDD1F6A95E2F71196DC93AC
:1030B000CE9318964F5F02C0880F991F4A95E2F78A
:1030C00001978D939C93EC56FF4F222311F081E0E2
:1030D00001C083E08083DF91CF91089502970C9423
:1030E000F01708958F929F92AF92BF92CF92DF9286
:1030F000EF92FF920F931F93CF93DF93CDB7DEB77D
:103100002E970FB6F894DEBF0FBECDBF86E691E0D6
:1031100090936D0480936C048AE791E090936F0420
:1031200080936E04809128028111E8C010927E0184
:103130001092800110927F01109282011092810101
:1031400081E08093830190E19093840180938501D5
:1031500010928601109287011092880110928901C5
:1031600010928B0110928A0110928D0110928C01A5
:1031700080938E0190938F01809390011092910122
:1031800010929201109293018CE791E0EEE9F1E048
:10319000AC01DA0159961C921E9258979F01285053
:1031A0003109D9011C922F5F3F4FD9011C92DA01DE
:1031B0005D961C921E925C972D5F3F4FD9011C9229
:1031C0002F5F3F4FD9011C922F5F3F4FD9011C92B7
:1031D0002F5F3F4FD9011C921082455F5F4F3B9696
:1031E000B1E04E3B5B07A9F6E6EDF1E040ED57E0BC
:1031F00024E11182108253834283DC01A25ABF4F23
:103200001C9211961C9211961C921086178213968E
:103210001C9211961C9211961C9211962C93119649
:103220001C923E960E9631E0863A930711F700E025
:1032300012E0D8011D921C9280E190E00E94862E3F
:103240009C01205F3F4FFC011192E217F307E1F769
:10325000F8019383828380E190E00E94862E9C0196
:10326000205F3F4FFC011192E217F307E1F7D8010D
:1032700015969C938E93149780E290E00E94862E80
:103280009C01205E3F4FFC0111921192E217F3075F
:10329000D9F7F80197838683085F1F4FF2E000316A
:1032A0001F0739F620E030E0C90184589E4FFC0129
:1032B000EC56FF4F10823196108231961082319673
:1032C0001082319610822B5F3F4F2F30310561F70E
:1032D00010921F021092200281E18093210210922D
:1032E00022021092230210922402109225021092C0
:1032F00026021092270281E0809328028CE791E059
:1033000090937104809370048091F00281113EC10A
:103310008CE391E090933102809330028CE591E050
:1033200090933302809332021092340227E020936C
:10333000350210923A028FE780933B0210923C02D2
:1033400010923D0280933E0220933F021092400271
:1033500080934102109242021092430280934402F1
:1033600020934502109246021092470210924802A2
:103370001092490288E0E4E1F1E0ACE4B2E00190AF
:103380000D928A95E1F78FEF9FE790935502809316
:10339000540290935702809356029093590280935F
:1033A000580244E751E050935B0240935A02109256
:1033B0005D0210925C0210925E0210925F02109207
:1033C0006002109261029093630280936202909374
:1033D0006502809364029093670280936602509323
:1033E00069024093680210926B0210926A02109276
:1033F0006C0210926D0210926E0210926F02109287
:103400007002109271022093720280E18093730225
:10341000109274028FEF80937502109277021092CF
:1034200078021092790210927A0210927B02109226
:103430007C0210927D0210927E0210927F02109206
:10344000800280E58093810284E690E0909383027D
:10345000809382021092840210928602109285025A
:103460001092870288EB91E0909389028093880202
:1034700090938B0280938A0290938D0280938C02AA
:1034800010928E021092900210928F02109292026D
:1034900010929102109294021092930290939602CD
:1034A00080939502909398028093970290939A024A
:1034B0008093990210929B0210929D0210929C029E
:1034C00010929F0210929E021092A1021092A002EE
:1034D00022EA32E080E392E0ECE0DE2E40E8F0E425
:1034E000EF2EA0E2FA2E07E016E055E060EE76E05F
:1034F000ECE1F1E0D901CD2C01900D92CA94E1F7F5
:10350000FC01E258FF4F40833196E0823196F08211
:10351000319600833196108331965083D9015396AA
:103520007C936E93529755967C936E9354973596F1
:10353000108231961082F901108E118E128E138E28
:103540005C961D921D921D921C925F97FC01EE5697
:10355000FF4F10823196108231964083319610824F
:10356000319610822B5D3F4F8596B2E08A379B07DC
:1035700009F0BECF1092EC021092ED028FE780931B
:10358000EE021092EF0281E08093F00280E392E07D
:10359000909373048093720484E0809374048CE3AA
:1035A000809375048EE694E090934B0280934A02D8
:1035B00085E190E00E94862E2AE0E8E2F1E0DC015D
:1035C00001900D922A95E1F720E8FC0122871386ED
:1035D000148626E0E2E3F1E0DC011D9601900D92F5
:1035E0002A95E1F722E332E02115310531F4DC01BF
:1035F00054961C921E92539703C0FC01348B238B6C
:1036000090933902809338028FE890E00E94862ED2
:10361000FC018DE780831182148215821682178245
:103620001086128611861486138615869F01225FE6
:103630003F4F80E8D9011D928A95E9F7DF01A25733
:10364000BF4F1C9280E392E093838283F093370212
:10365000E09336028CE694E090937D0180937C01A8
:10366000F8942A9A229A8CB580618CBD8CB58064BE
:103670008CBD239A259A8DB581608DBD8CB58D7FCB
:103680008CBD8CB58E7F8CBD8CB58F7D8CBD8CB583
:10369000877F8CBD8CB58B7F8CBD00E010E06AE02D
:1036A000F62E78E0E72E602F2A98C801880F991F20
:1036B00080648EBD0DB407FEFDCFFEBC0DB407FEC9
:1036C000FDCFEEBC0DB407FEFDCF2A9A20E030E01E
:1036D00040E08CE791E00E9477100F5F1F4F0330AE
:1036E000110509F70CE711E0EEE9F1E080E090E068
:1036F00067E880937C0020917C00206420937C000C
:1037000020917C00206220937C0060937A002091BD
:103710007A00206420937A0020917A0026FDFCCF65
:1037200020917900AC014E5E5B4FDA012C93D801F9
:1037300059961C921E925897AF0148505109DA01D0
:103740001C924F5F5F4FDA012C93D8015D961C925B
:103750001E925C974D5F5F4FDA012C939F012350BF
:103760003109D9011C922F5F3F4FD9011C922F5F65
:103770003F4FD9011C9210820196055F1F4F3B9667
:103780008630910509F0B5CF10927C0080917C00C5
:10379000806480937C0080917C00806280937C00B8
:1037A0008FE880937A0080917A00806480937A0019
:1037B00020E030E0C12CD12C7601C39400E010E071
:1037C000F801E20FF31FE85FFE4F84914AB1460112
:1037D000570104C0880C991CAA1CBB1C8A95D2F7FF
:1037E000D501C40180959095A095B09550E060E01A
:1037F00070E084239523A623B7238AB9E4914BB1C3
:10380000D701C60104C0880F991FAA1FBB1FEA95E4
:10381000D2F7842B8BB90130110519F001E010E0CB
:10382000CFCF2E5F3F4F2430310541F620982898A6
:103830002198299856985E98539A5B9813B11095E1
:10384000812F817080930F041A82198220ED37E056
:103850003C832B831F82198618861A861B861C863A
:1038600094E19D871E868D838E838EE0FE013196C6
:10387000A6EDB1E001900D928A95E1F7CE01019697
:103880000E949B158091DA01813011F4809323020C
:1038900011FB882780F9809310041A82198290ED19
:1038A000E92E97E0F92EFC82EB821F82198618869A
:1038B0001A861B861C8614E11D871E868D838E83C7
:1038C0008EE0FE013196A4EEB1E001900D928A9552
:1038D000E1F7CE0101960E949B1589B1809586FB88
:1038E000882780F9809311041A821982FC82EB8266
:1038F0001F82198618861A861B861C861D871E86BF
:103900008D838E838EE0FE013196A2EFB1E00190AF
:103910000D928A95E1F7CE0101960E949B15809148
:103920006B00816080936B0080916B00826080935C
:103930006B00D89A809168008160809368008091C4
:103940006D00846080936D0080916D008061809334
:103950006D0080916D00806280936D0080916D009C
:10396000806480936D0080916D00806880936D000D
:10397000DA9A8091680084608093680078948FEF71
:1039800093E00E94A62A8078809324028FEF93E030
:103990000E94A62A8074809326028FEF93E00E94F3
:1039A000A62A8F7080932502909123029923D1F04B
:1039B00091E09093850190918401891724F09150B2
:1039C00090937E0102C080937E011092100282E0EB
:1039D00080938F011092890110921A028CE791E076
:1039E0000E948C102E960FB6F894DEBF0FBECDBF8E
:1039F000DF91CF911F910F91FF90EF90DF90CF90CB
:103A0000BF90AF909F908F900895CF93DF93CDB7E5
:103A1000DEB765970FB6F894DEBF0FBECDBF7894C2
:103A200084B5826084BD84B5816084BD85B58260C3
:103A300085BD85B5816085BD80916E008160809374
:103A40006E001092810080918100826080938100DD
:103A500080918100816080938100809180008160ED
:103A6000809380008091B10084608093B100809148
:103A7000B00081608093B00080917A008460809370
:103A80007A0080917A00826080937A0080917A0037
:103A9000816080937A0080917A00806880937A00B8
:103AA0001092C100E0917004F091710481E081876F
:103AB000148A8091C00082608093C0001092C5007B
:103AC0008FE38093C4008091C10080618093C10026
:103AD0008091C10088608093C1008091C10080689E
:103AE0008093C1008091C1008F7D8093C100E95512
:103AF000FF4F808181112CC1C0907204D09073045B
:103B0000F8948091B6008F7B8093B6008091B600C8
:103B10008F7D8093B6008091B00081608093B0006B
:103B20008091B00082608093B0008091B100877F67
:103B30008093B1008091B0008F7E8093B00080911F
:103B4000B00080628093B0008091B0008F7B809342
:103B5000B0008091B0008F778093B0008091B10069
:103B600081608093B1008091B1008D7F8093B1001E
:103B70008091B1008B7F8093B10080917000816053
:103B800080937000809180008E7F80938000809170
:103B900080008D7F80938000809181008860809379
:103BA0008100809181008F7E8093810080918100CF
:103BB000816080938100809181008D7F809381005E
:103BC000809181008B7F8093810080910201909190
:103BD0000301909389008093880080916F00826038
:103BE00080936F0084B58E7F84BD84B5826084BD70
:103BF00085B5877F85BD85B58E7F85BD85B58D7F74
:103C000085BD85B5846085BD8091000187BD8091AB
:103C10006E00826080936E00789400E010E0D60120
:103C20008D919C91119718960D90BC91A02DA00F8D
:103C3000B11FFC01228D338D1D964C91602FC60162
:103C4000F90109950F5F1F4F0630110541F710E08C
:103C5000D601ED91FC911197E688F788612F1896AF
:103C60008D919C9119970E948216482F612FC60151
:103C7000F7010995612FD60118968D919C9119979E
:103C80000E943416D601ED91FC91008CF18DE02D4F
:103C9000482F612FC60109951F5F1431C9F660E0F6
:103CA000C6010E94D5148FEF9FE7F60197AB86AB54
:103CB00011E017AF95AB84ABC601885A9F4FDC016A
:103CC00016961C930E94A315C6018B599F4FFC01A9
:103CD00016830E94A315E0917204F0917304A681EB
:103CE000B781E0917004F0917104E755FF4F808136
:103CF0008F7011968C93E0917204F091730406809A
:103D0000F781E02DE257FF4F80917004909171048C
:103D1000DC01A655BF4F21E03C91311101C020E0EC
:103D2000208340917404EE24E39403E0242F64E0A4
:103D30008C569F4F0E9473174091740480917004B9
:103D400090917104242F64E087569F4F0E9473174F
:103D50000091700410917104F801E955FF4F8081C2
:103D6000811107C060906B04662011F40C944B27FE
:103D700002C0A2E06A2EF0E4FF2E6801F8EACF0E3E
:103D8000D11C809106018F5F8F7390915904891324
:103D900013C0809118048823A9F1D8018D919C91BA
:103DA00060911804DC01ED91FC910484F585E02D0F
:103DB00009951092180426C080930601D8018D91B0
:103DC0009C91E0910601F0E0E75EFB4F6081DC0131
:103DD000ED91FC910284F385E02D0995F601808137
:103DE000803861F4E0910601F0E0E75EFB4F8081EE
:103DF0009091C00095FFFCCF8093C600FA94F1101B
:103E0000C0CFC7CFC0907004D09071047601BEE1DE
:103E1000EB0EF11C2601EAE14E0E511C00E010E011
:103E2000A62CB12C772473944601F7EA8F0E911CCF
:103E3000602FF801EE5EFB4F2081D7012C93F70134
:103E400033973081822F90E0831B910997FF03C045
:103E5000919581959109059754F0D2018C9181112A
:103E600006C07C9213961C921E92129713C0D20128
:103E70008C91882379F012968D919C9113978A0DDD
:103E80009B1D13969C938E931297803D974010F044
:103E9000D2011C92D2018C91882399F0231789F0CA
:103EA0002083F401808181110CC0D6018D919C91F9
:103EB000DC01ED91FC910480F581E02DD7014C915E
:103EC00009950F5F1F4FBBE0EB0EF11CEBE04E0EB0
:103ED000511C0630110509F0ABCF00917004109110
:103EE00071046801FEE5CF0ED11C9801205A3F4FA6
:103EF0003F832E83580135E6A30EB11CE12CF12C33
:103F0000262C312C980129553F4F3A832983A8014B
:103F100048555F4F4A01C80186559F4F2C012E5FBF
:103F20003F4F3C832B837E2CF701E15FFB4F4081A9
:103F3000D6014C93413019F5EE81FF818181928148
:103F4000820D931D92838183349720813181821762
:103F50009307A8F0D5018C91811111C04C93E98190
:103F6000FA81808181110BC0D8018D919C91DC0177
:103F7000ED91FC910280F381E02D6E2D0995EE818B
:103F8000FF8180819681891710F4860D8083AE8130
:103F9000BF818C91891708F44CC0F6019081FD0116
:103FA0002291921709F445C0913051F421110DC0AE
:103FB00012961C921E921197D5011C9281E006C0A8
:103FC000911103C081E0213009F080E09083EE81FF
:103FD000FF811082882369F1A981BA818C918111B6
:103FE0000EC0F80180819181DC01ED91FC9101907E
:103FF000F081E02DD6014C91672D09951AC0B1E0F2
:10400000EB16F104B1F4F6018081813091F4A0C780
:104010001C92D4016C91EB81FC818081682BD201D0
:104020008C91682B8FEF93E00E94BE2AC8010E94FA
:104030008C10BFEFEB1AFB0AEEE0CE0ED11C2E81E6
:104040003F81225F3F4F3F832E833EE0A30EB11C92
:1040500043E0E416F10409F066CF0091700410917A
:10406000710478015CE0E50EF11C58016AE0A60ECF
:10407000B11CC80102969C838B83C12CD12CD80122
:10408000A955BF4FBA83A9834801B9EA8B0E911C89
:104090001801E8EA2E0E311C2801FAEA4F0E511CD5
:1040A000772473946C2DF601EE0FFF1FE55FFB4F35
:1040B00080819181F70130812291321740F0AB81EC
:1040C000BC8112969C938E931197D7011C92D701B5
:1040D0008C919081891710F4860D8C93EB81FC8173
:1040E0002181328183819481A901481B590BCA0126
:1040F00057FD03969595879595958795009709F4B3
:104100004DC0AB81BC8114963C932E93139797FDC1
:1041100003C0F501708202C0D5011C92F7013597EA
:104120002081222339F1EB81FC819081890F8083EA
:10413000F701339790813197992379F0908189170E
:104140002CF0891BAB81BC818C9314C087FF12C0FB
:10415000890FEB81FC8180830DC0908189172CF041
:104160009150AB81BC819C9305C087FF03C0EB815C
:10417000FC811082A981BA818C91811101C7D8017B
:104180008D919C91DC01ED91FC910680F781E02DF1
:10419000D5012C91AB81BC814C910995FBE0EF0ED0
:1041A000F11C2BE0A20EB11C4B815C81455F5F4F7F
:1041B0005C834B83CA94CD2821F0CC24C394D12CAA
:1041C00071CF8091700490917104FC01E555FF4F0F
:1041D0002081260D208360E02081203120F02051B5
:1041E00020836F5FF9CF662309F432C1DC01AC573D
:1041F000BF4F72E0462E512C20E030E01296ED9138
:10420000FC911397E20FF31F4081442309F483C00C
:104210008901000F111F1696ED91FC911797E00F81
:10422000F11F40815181440D551D518340831496E7
:10423000ED91FC911597E20FF31F4081E9E5F2E162
:104240005491E8E5F2E1E490CD90DC901197022ED4
:1042500002C0D694C7940A94E2F71696ED91FC91A9
:104260001797E00FF11FC0FE2AC00081118145237E
:1042700050E0689413F8559547951694E1F70417A4
:10428000150708F448C0041B150B11830083812C0B
:10429000912C54018394022E04C0880C991CAA1CF2
:1042A000BB1C0A94D2F7A40140955095ED91FC9166
:1042B00011974E235F2311965C934E9321C0C080CB
:1042C000D1804E2150E0C416D50628F1C41AD50A73
:1042D000D182C082812C912C54018394022E04C07F
:1042E000880C991CAA1CBB1C0A94D2F775016401A6
:1042F0004D915C911197C42AD52A1196DC92CE92E9
:104300001296ED91FC911397E20FF31F40814F3FFE
:1043100011F0415040832F5F3F4F2031310509F0AC
:104320006DCF1896713011F071E066CF8C010A568E
:104330001F4FDC01A856BF4F2C0124E9420E511C2F
:104340007C0137EAE30EF11CF8012081222309F4F5
:104350003FC07C91760F7C93F201B080FD013397D2
:104360004081E9E5F2E12491242330E054E03595E1
:1043700027955A95E1F7A22EE8E5F2E1C490C42210
:10438000FD013197D080E9E5F2E144914D2150E003
:10439000E4E055954795EA95E1F7E8E5F2E1849088
:1043A000B21202C0741738F4BC1012C0D8207D15A8
:1043B00078F0BA1005C0741B7C93F201C08204C06F
:1043C0007D197C93F2012083F80120812150208304
:1043D0000B5F1F4F1596F5E04F0E511CAE15BF0534
:1043E00009F0B2CFDC01AD55BF4F11962C9111975A
:1043F000222371F113968C911397680F13966C9387
:10440000139712969C911297E9E5F2E18491E8E501
:10441000F2E144913C91332361F09823892F90E09D
:1044200044E0959587954A95E1F7681788F0681BF1
:1044300004C09423691760F0691B13966C9313975B
:1044400081E038273C932F3F19F0215011962C938F
:104450000091700410917104F801EC57FF4FE08057
:10446000F18080917D0490917E04E816F90651F068
:10447000970142E160E0C8010E947710F0927E044B
:10448000E0927D04F801E457FF4FE080F1808091D5
:104490007F0490918004E816F90651F0970142E1FB
:1044A00061E0C8010E947710F0928004E0927F04DE
:1044B000F801EC56FF4F8081982F9D7F913019F0C5
:1044C000E12CF12C03C092E0E92EF12C82508230D5
:1044D00010F46894E0F8F801E756FF4F8081982FB8
:1044E0009D7F913011F46894E3F88250823010F48B
:1044F0006894E2F8F801E256FF4F8081813091F034
:10450000823099F0833099F480917C048F5F8330FE
:1045100018F480937C0402C010927C0480917C0487
:10452000823018F46894E5F802C06894E6F8F8015F
:10453000ED55FF4F8081882311F06894E4F8809155
:10454000810490918204E816F90651F0970142E146
:1045500062E0C8010E947710F0928204E092810428
:10456000E0917004F0917104E955FF4F8081811151
:1045700092C480907204909073049D8A8C8AD401B6
:1045800056968C9190E0FC01E053FE4E0491FC01A4
:10459000E853FE4E14910E94862AA02F000FBB0BF9
:1045A000A11BB10917FDB395E82FEA9FC001EB9F4E
:1045B000900D1124E12FE90FAC89BD8957968C919C
:1045C000882309F46EC080917A0490917B042FEFC8
:1045D000289FA001299F500D1124252F332727FD47
:1045E0003A95B9E1EB02A0011124852F992787FDA7
:1045F0009A95A901480F591F50937B0440937A0460
:10460000209178043091790466EF629FC001639F26
:10461000900D1124292F332727FD3A95FBE4EF0253
:10462000C0011124892F990F990B820F931F90932A
:10463000790480937804A0917604B091770421E9FD
:104640002A9FB0012B9F700D1124A72FBB27A7FD18
:10465000BA950DE011E06E2F60039001619F300D5F
:104660001124232F330F330B2A0F3B1F3093770472
:1046700020937604840F951F280F391F8FE2E802DC
:10468000F0011124EF2FFF0FFF0BE20FF31FE038B3
:10469000F10534F4E1389FEFF9071CF4E1E801C0BB
:1046A000EFE7AC89BD8958968C91A82FB0E0A75F41
:1046B000BC4FEC93EC89FD89808D8F5F808F80915A
:1046C0000803813318F01092080305C08091080395
:1046D0008F5F80930803862C912C988A8F860C8993
:1046E0001D890F5A1F4FD80114968D919C911597D3
:1046F000880D991D15969C938E93149711962D9164
:104700003C911297D80114966D917C911597621780
:10471000730730F0621B730BF80175836483F2CF6B
:10472000CB01A0E0B0E0BC01CD0146E0660F771FF1
:10473000881F991F4A95D1F740E050E00E94022B54
:10474000F8018381281768F42B8B0E94862AFEEFDC
:104750008F9FC001112481E8890FD80116968C9390
:104760002B89F80123832C893D892C5D3F4F3F83A2
:104770002E83662DC9010E94A60E4C895D894E5C70
:104780005F4F5B874A87662DCA010E94A60ED8013B
:104790001396EC91F0E0E852FE4EAC89BD899D96EF
:1047A0002C919D9751964C91519750E05296EC90D8
:1047B00052979E968C9181112195022E000C330BFD
:1047C0006E2D70E0B2E0FB2E89E0D82E96EFC92E58
:1047D0009491EE20C1F0AC89BD8953968C918111E2
:1047E00004C0A92F990FBB0B01C0D901A69FC0011E
:1047F000A79F900DB69F900D1124892F990F990BAB
:10480000840F951F01C0CA01AC89BD89873F9105FE
:104810001CF05496CC9208C0893091051CF4549633
:10482000DC9202C054968C93B1E0FB1619F0FF2481
:10483000F394CECFAC89BD89A45BBF4F8C9181111D
:1048400003C0F801E68001C0E490EC89FD89E35BD8
:10485000FF4F8081811103C08E819F8102C08A85B4
:104860009B850E94270FEC89FD89E154FF4F308121
:104870000C891D890B5B1F4FD8019C9113962C91BD
:1048800013974E2D4203F001112424E0F595E7958E
:104890002A95E1F7E90FF11D14962C911497582FE2
:1048A0005203C001112443E0959587954A95E1F79D
:1048B0008E0F9F1F332311F016963C93D801159647
:1048C0006C91159716964C9150E040545109649F95
:1048D0009001659F300D1124B3E035952795BA9569
:1048E000E1F7280F391F2F3F310509F024F437FD78
:1048F00005C0F22E04C0FF24FA9401C0F12CF80187
:104900008281823069F0833009F441C0813009F03E
:1049100054C02F2D30E0359527952187218149C03E
:104920002F2D30E0A5E7B0E00E94242B2FEF30E0E0
:1049300040E050E00E94D02ADA01C9010596A11D8D
:10494000B11DF8018187E180AF2DB0E02EEE3FEF81
:104950004FEF5FEF0E94EF2A2FEF30E040E050E092
:104960000E94D02A2951310941095109AE2DB0E0E8
:104970000E94EF2A2FEF30E040E050E00E94D02A62
:10498000DA01C9018D96A11DB11D9C0118C02F2D02
:1049900030E0ACEFB5E10E94242B29E03DE340E09C
:1049A00050E00E94022BD80119962C93199711966A
:1049B0002C9130E03595279502C020E030E0F801D9
:1049C00041854203C001439F900D1124880F892F18
:1049D000881F990B82872C883D88FCE52F0E311C9F
:1049E0000C891D8998012A573F4F3A832983A801D2
:1049F000465A5F4F5C834B83480119870887412CD7
:104A0000512C255331093D872C874D595F4F5A8BC7
:104A1000498B77247394D1018D919C911197F40166
:104A2000E85AFF4F208131818217930781F139962F
:104A3000C080D180C114D10481F0C4018D599F4F31
:104A4000FC0160817181AF85B889A60FB71FB18362
:104A5000A083CA16DB0620F4D1012D933C9320C01D
:104A6000EB81FC81E080F180A90160E070E09A01B7
:104A7000AB012E193F09410951090E94EF2A960105
:104A800040E050E00E94D02A2E0D3F1DE5CFEB8183
:104A9000FC81208131812817390711F091838083AF
:104AA000D1018D919C917801B4E8EB0EF11CF701D6
:104AB0009183808371968081AC85BD851396EC913E
:104AC000F0E0811103C0E852FE4E02C0E85EFD4EE8
:104AD0003491F801EA56FF4F8081811105C0EC85C1
:104AE000FD85F681FE8707C08E819F813B8B0E94EA
:104AF000270F8E873B89A989BA89BC91BD83F701AD
:104B0000A080B1806501E12CF12CF801E857FF4F3E
:104B10008081882381F13A968081F5E2F49D7001CD
:104B2000F59DF00C11244C895D89E40EF51EE80E0C
:104B3000F11CF701E258FF4FD801A657BF4F4D9126
:104B40005D916D917C912081832F0E94E715282F24
:104B500030E02F5F3F4FD5010E94242BF701EF5724
:104B6000FF4F6B017C01008004C0F694E794D7945A
:104B7000C7940A94D2F7F801E757FF4F8081882342
:104B800081F13A96808155E2549D5001559DB00CBB
:104B90001124AC89BD89AA0EBB1EA80EB11CF5015B
:104BA000E258FF4FD801A257BF4F4D915D916D91D3
:104BB0007C9120818E850E94E715A82FB0E0119688
:104BC000A70196010E94EF2AF501EF57FF4F6B01F5
:104BD0007C01008004C0F694E794D794C7940A94AB
:104BE000D2F7AD80AA20F1F1F801EE56FF4F808197
:104BF00090E025E2B22EB49C9001B59C300D1124BA
:104C0000AC88BD88A20EB31EA80EB91EF501E258ED
:104C1000FF4F880F991F880F991F820F931F2C89B0
:104C20003D89820F931FDC01AE58BF4F4D915D91BE
:104C30006D917C9120818D810E94E715A82FB0E0B5
:104C40001196A70196010E94EF2AF501EF57FF4F39
:104C50006B017C01008004C0F694E794D794C7945C
:104C60000A94D2F7F801EC56FF4FA081A03871F0FA
:104C7000B0E0A70196010E94EF2A6B017C0187E05A
:104C8000F694E794D794C7948A95D1F7C11430E489
:104C9000D306E104F10438F0EFEFFFE3A981BA8114
:104CA000ED93FC9304C0A981BA81CD92DC92E98195
:104CB000FA81A080B180C501A0E0B0E05C016D0187
:104CC000B6E0AA0CBB1CCC1CDD1CBA95D1F7E8855C
:104CD000F985848D958DA68DB78DA816B906CA065F
:104CE000DB0609F489C0A48EB58EC68ED78EE12C62
:104CF000F12CED8260E074E284EF90E00E2C04C0B1
:104D0000660F771F881F991F0A94D2F7A601950195
:104D10000E94022BC9012130B5E03B0758F061E049
:104D200070E001C0660FEA94EAF7F201EC5FFE4F13
:104D3000608307C0EFEFEE1AFE0AF8E0EF16F10409
:104D4000C1F64114510441F40197909303018093FB
:104D500002017092090450C0E0E02F3F310511F0CC
:104D600008F044C08E2F90E0FC013197E830F10547
:104D700020F4EC5CFF4F0C94802E7092010130C047
:104D80007092010122C070920101F201EC5FFE4FAE
:104D9000808190E09595879595958795808320C033
:104DA00072E0A72EA09201011BC062E0B62EB09265
:104DB00001010BC042E040930101E7CF53E0509363
:104DC00001010EC063E060930101F201EC5FFE4F50
:104DD000808190E095958795E1CF84E080930101F3
:104DE00021502093000170920A0406C03695279541
:104DF000EF5FE93009F0B1CF9DE0290E311CADE045
:104E00008A0E911CE885F9853496F987E88729810F
:104E10003A812B5D3F4F3A8329830B5D1F4F4B81B6
:104E20005C81435F5F4F5C834B834A94452821F04C
:104E300044244394512CEFCDEC89FD89EC5BFF4F6A
:104E40008081811103C08A859B8502C08E819F81EC
:104E50000E94270FEC89FD89E05CFF4F2381682FBA
:104E60006203C001112434E0959587953A95E1F7E6
:104E70002181820F911D8038910534F48038AFEF85
:104E80009A071CF480E801C08FE7808380916B044F
:104E9000861980936B04E0917004F0917104E955D8
:104EA000FF4F808181114AC0E0917204F091730438
:104EB000DF01A05BBF4F8C9190E095958795809323
:104EC0006A0490916A048FE7891B809307015097C9
:104ED0008C91809369048285809366048785809392
:104EE0006304868580936104808980936704858943
:104EF000809364048489809362048481809368042D
:104F00008581809365049091600417968C91981721
:104F100051F08093600410925D0410925C04109232
:104F20005F0410925E04DF01A25BBF4F8C918093FF
:104F30005B04E15BFF4F808180935A0480E090E046
:104F4000892B11F40C94A81E0E9400000C94A81E3A
:104F5000F8018585811108C0D4018C91803809F44D
:104F600057C820E8F4010AC0813009F052C8D201C4
:104F70008C91803409F44CC820E4F201208349C8A4
:104F8000C114D104D9F4EB81FC816081D4016C930C
:104F9000F80180819181DC01ED91FC910084F18523
:104FA000E02D0995F1016081D4018C91682BF2010B
:104FB0008081682B8FEF93E00E94BE2AC8010E9477
:104FC0008C10ECC8EF92FF920F931F93CF93DF9357
:104FD000EC01062F142F862F90E08431910508F004
:104FE000F0C0FC01E45CFF4F0C94802E7E0132E7A0
:104FF000E30EF11C09C07E01B2E7EB0EF11C2CC0E0
:105000007E01F7E9EF0EF11CD70156961C93612F34
:1050100070E080E090E00E947B2CF70120A134E05A
:10502000239FE00DF11D11242081318142815381A4
:105030000E94A62D20E030E040E751E40E94A02B22
:10504000D70158966D937D938D939C935B97B9C0D0
:105050007E01B7E9EB0EF11CF701178B612F70E0B1
:1050600080E090E00E947B2CD70191962C91F70173
:10507000B4E02B9FE00DF11D11242081318142818C
:1050800053810E94A62D20E030E040E751E40E94C9
:10509000A02BF701648F758F868F978F92C0842F16
:1050A000880F880F880F8158898B8BC0842F829539
:1050B000807F8A8B86C0842F90E0959587958D831D
:1050C0008E8B7FC0842F90E0959587958F8779C0D0
:1050D000842F90E0959587958D8B73C0FE01E85BDA
:1050E000FF4F6EC0FE01E75BFF4F6AC0E42FF0E0A8
:1050F000EE0FFF1FE652FC4E859194919BA78AA765
:1051000020C0E42FF0E0EE0FFF1FE654FC4E859127
:10511000949199A788A715C0E42FF0E0EE0FFF1F28
:10512000E656FC4E859194919FA38EA30AC0E42F6E
:10513000F0E0EE0FFF1FE658FC4E859194919DA381
:105140008CA381E089AB3DC0E42FF0E0EE0FFF1FA0
:10515000CF01865A9C4E7C01FC0125913491CE01F1
:10516000885A9F4FDC0118963C932E9317970E9404
:10517000A315F70125913491CE018B599F4FFC0166
:10518000308727830E94A3151CC0E42FF0E0EE0FA8
:10519000FF1FE652FC4E8591949199AF88AF0AC0EB
:1051A000E42FF0E0EE0FFF1FE658FC4E859194913E
:1051B0009BAB8AAB81E08FAF04C0FE01E95BFF4F80
:1051C0001083898D081711F00331C1F4EA8CFB8C30
:1051D000602F888599850E943416D701ED91FC9146
:1051E0000190F081E02D282F412F602FC701DF9122
:1051F000CF911F910F91FF90EF900994DF91CF9184
:105200001F910F91FF90EF900895623039F128F4CB
:10521000662361F06130B1F00895643009F445C04F
:1052200008F43FC0653009F444C0089550E0559536
:105230004795EAEFF4E1E41BF50BE491DC01AC5691
:10524000BF4F0AC0E42FF0E0F595E795E650FB4E1E
:10525000E491DC01A754BF4FEC930895E42FF0E0F4
:10526000F595E795E650FC4E6491FC01EF5AFF4F2F
:10527000608370E080E49FE10E946C2E9B0172834A
:105280006183A381B0E00E94242BDC01CB0136E0D6
:10529000B695A795979587953A95D1F79583848389
:1052A0000895FC01EB5BFF4F07C0FC01EA5BFF4F79
:1052B00003C0FC01E05BFF4F4083089502970C940C
:1052C000052902970C94E227EF92FF920F931F9308
:1052D000CF93DF93EC01062F142F862F90E08331BC
:1052E000910508F0A1C0FC01E05BFF4F0C94802EFB
:1052F000FE01EE58FF4F08C07E0132E7E30EF11CBD
:1053000009C0FE01E956FF4F13A38EC07E01F7E9E5
:10531000EF0EF11CF70114A3111102C081E002C0CD
:1053200082E0F70181A3F701678970E080E090E0F7
:105330000E947B2CF70121A134E0239FE00DF11D99
:10534000112420813181428153810E94A62D20E0C9
:1053500030E040E751E40E94A02BF701648F758F85
:10536000868F978F61C040938B045EC04B8B5CC06F
:105370004C835AC04A8758C0488B56C0FE01E45B34
:10538000FF4F03C0FE01E35BFF4F10834DC044237A
:1053900009F44AC041E060E1888599850E944B1676
:1053A00060E13FC0FE01E65BFF4F442319F08FE050
:1053B00080833AC0108238C0FE01EC5BFF4FE5CF1E
:1053C000442391F141E061E1888599850E944B1663
:1053D00061E127C0442341F141E062E1888599857C
:1053E0000E944B1662E11DC041111EC040E06BE0FF
:1053F000888599850E944B166BE013C0411114C03B
:1054000040E06EE0888599850E944B166EE009C0E9
:1054100041110AC040E06FE0888599850E944B16D3
:105420006FE0CE010E94D514898D081319C0EA8D52
:10543000FB8D0190F081E02DE080F180602F888568
:1054400099850E948216212F482F602F8A8D9B8D6F
:10545000F701DF91CF911F910F91FF90EF90099489
:10546000DF91CF911F910F91FF90EF9008950297D8
:105470000C9464298F929F92AF92BF92CF92DF9249
:10548000EF92FF92CF93DF93EC01688179818A815B
:105490009B81611571058105910521F464E279ED27
:1054A0008BE597E02DE133EF41E050E00E94D02AF8
:1054B00049015A019B01AC01A7EAB1E40E94EF2A1D
:1054C0006B017C01ACEEB4EFA50194010E94FD2AB2
:1054D000DC01CB018C0D9D1DAE1DBF1DB7FF03C0B0
:1054E0000197A109B04888839983AA83BB839F77DA
:1054F000DF91CF91FF90EF90DF90CF90BF90AF9072
:105500009F908F9008950E943A2A08958AE091E032
:105510000E943A2A0895A0E0B0E080930A01909397
:105520000B01A0930C01B0930D010895DC01CB0198
:10553000FC01F999FECF06C0F2BDE1BDF89A3196A3
:1055400000B40D9241505040B8F70895F999FECF3C
:1055500092BD81BDF89A992780B50895DC01A40F0A
:10556000B51F4150504048F0CB01840F951F2E913C
:105570000E94BF2A41505040D0F70895262FF99934
:10558000FECF92BD81BDF89A019700B4021639F0A2
:105590001FBA20BD0FB6F894FA9AF99A0FBE089573
:1055A000052E97FB1EF400940E94E72A57FD07D0B2
:1055B0000E94022B07FC03D04EF40C94E72A50956E
:1055C0004095309521953F4F4F4F5F4F08959095EF
:1055D0008095709561957F4F8F4F9F4F08950E94E2
:1055E000242BA59F900DB49F900DA49F800D911D1D
:1055F00011240895B7FF0C94EF2A0E94EF2A821B12
:10560000930B0895A1E21A2EAA1BBB1BFD010DC02E
:10561000AA1FBB1FEE1FFF1FA217B307E407F50762
:1056200020F0A21BB30BE40BF50B661F771F881F3E
:10563000991F1A9469F760957095809590959B01D4
:10564000AC01BD01CF010895A29FB001B39FC0017D
:10565000A39F700D811D1124911DB29F700D811D9E
:105660001124911D08955058BB27AA270E944B2B47
:105670000C94F62C0E94E82C38F00E94EF2C20F0BD
:1056800039F49F3F19F426F40C94BE2C0EF4E095E7
:10569000E7FB0C94B82CE92F0E94072D58F3BA179A
:1056A000620773078407950720F079F4A6F50C9438
:1056B000292D0EF4E0950B2EBA2FA02D0B01B90168
:1056C00090010C01CA01A0011124FF27591B99F078
:1056D000593F50F4503E68F11A16F040A22F232F84
:1056E000342F4427585FF3CF469537952795A795D4
:1056F000F0405395C9F77EF41F16BA0B620B730B7B
:10570000840BBAF09150A1F0FF0FBB1F661F771FEB
:10571000881FC2F70EC0BA0F621F731F841F48F4A0
:10572000879577956795B795F7959E3F08F0B0CF29
:105730009395880F08F09927EE0F97958795089510
:105740000E94B42B0C94F62C0E94EF2C58F00E946F
:10575000E82C40F029F45F3F29F00C94B82C51114B
:105760000C942A2D0C94BE2C0E94072D68F39923CB
:10577000B1F3552391F3951B550BBB27AA2762174D
:105780007307840738F09F5F5F4F220F331F441F5A
:10579000AA1FA9F335D00E2E3AF0E0E832D091508E
:1057A0005040E695001CCAF72BD0FE2F29D0660F7B
:1057B000771F881FBB1F261737074807AB07B0E8BE
:1057C00009F0BB0B802DBF01FF2793585F4F3AF0C4
:1057D0009E3F510578F00C94B82C0C942A2D5F3F15
:1057E000E4F3983ED4F3869577956795B795F7954A
:1057F0009F5FC9F7880F911D9695879597F9089532
:10580000E1E0660F771F881FBB1F621773078407CD
:10581000BA0720F0621B730B840BBA0BEE1F88F7DC
:10582000E095089529F416F00C94B82C0C94292DC9
:105830000C94BE2C0E940F2DA8F39638A0F707F801
:105840000F92E8942BE33AEA48EB5FE70E94BC2D05
:105850000F920F920F924DB75EB70F920E94722D6A
:10586000E6ECF0E00E94C12C4F915F91EF91FF9127
:10587000E595EE1FFF1F49F0FE57E0684427EE0F45
:10588000441FFA95E1F74195550B0E943C2D0F906E
:1058900007FE0C94302D08950E940F2D88F09F571D
:1058A00098F0B92F9927B751B0F0E1F0660F771F44
:1058B000881F991F1AF0BA95C9F714C0B13091F03A
:1058C0000E94292DB1E008950C94292D672F782F7F
:1058D0008827B85F39F0B93FCCF3869577956795FF
:1058E000B395D9F73EF490958095709561957F4F6B
:1058F0008F4F9F4F0895E89409C097FB3EF4909511
:105900008095709561957F4F8F4F9F4F9923A9F098
:10591000F92F96E9BB279395F69587957795679527
:10592000B795F111F8CFFAF4BB0F11F460FF1BC06B
:105930006F5F7F4F8F4F9F4F16C0882311F096E9FE
:1059400011C0772321F09EE8872F762F05C06623AC
:1059500071F096E8862F70E060E02AF09A95660F65
:10596000771F881FDAF7880F9695879597F908951E
:1059700097F99F6780E870E060E008959FEF80EC02
:105980000895DF93CF931F930F93FF92EF92DF92CF
:105990007B018C01689406C0DA2EEF010E94B92DBC
:1059A000FE01E894A5912591359145915591A6F375
:1059B000EF010E944B2BFE019701A801DA9469F7D1
:1059C000DF90EF90FF900F911F91CF91DF9108959D
:1059D00000240A94161617061806090608950024CE
:1059E0000A9412161306140605060895092E039448
:1059F000000C11F4882352F0BB0F40F4BF2B11F4BC
:105A000060FF04C06F5F7F4F8F4F9F4F089557FD1A
:105A10009058440F551F59F05F3F71F04795880F1C
:105A200097FB991F61F09F3F79F0879508951216B3
:105A300013061406551FF2CF4695F1DF08C016165F
:105A400017061806991FF1CF869571056105089410
:105A50000895E894BB2766277727CB0197F9089527
:105A60009B01AC0160E070E080E89FE30C94A02B08
:105A70000C94B82C0C94522E0E940F2DD8F399231D
:105A8000C9F3940F511DA3F39150504094F059F075
:105A9000882332F0660F771F881F91505040C1F75E
:105AA0009E3F51052CF7880F911D9695879597F984
:105AB00008955F3FACF0983E9CF0BB2786957795A4
:105AC0006795B79508F4B1609395C1F7BB0F58F788
:105AD00011F460FFE8CF6F5F7F4F8F4F9F4FE3CF91
